:020000040001F9
:10900000F8390020C5930100EF930100F1930100AE
:10901000F3930100F5930100F793010000000000B5
:10902000000000000000000000000000F9930100B3
:10903000FB93010000000000FD930100FF9301007D
:10904000D59F010001940100F5A4010001940100E5
:109050000194010000000000ED9C010089A00100C6
:10906000B9A40100CDA40100E1A401000194010014
:109070000194010001940100019401000194010098
:109080000194010079A00100019401000194010004
:1090900001940100019401002DA20100019401003E
:1090A0000194010001940100000000000000000094
:1090B0000194010001940100000000000000000084
:1090C00000000000000000000000000000000000A0
:1090D0000000000000000000000000000000000090
:1090E0000000000000000000000000000000000080
:1090F0000000000000000000000000000000000070
:10910000000000000000000000000000000000005F
:10911000000000000000000000000000000000004F
:10912000000000000000000000000000000000003F
:10913000000000000000000000000000000000002F
:10914000000000000000000000000000000000001F
:10915000000000000000000000000000000000000F
:1091600000000000000000000000000000000000FF
:1091700000000000000000000000000000000000EF
:1091800000000000000000000000000000000000DF
:1091900000000000000000000000000000000000CF
:1091A00000000000000000000000000000000000BF
:1091B00000000000000000000000000000000000AF
:1091C000000000000000000000000000000000009F
:1091D000000000000000000000000000000000008F
:1091E000000000000000000000000000000000007F
:1091F000000000000000000000000000000000006F
:10920000DFF810D000F022FD0048004721C6010021
:10921000AFF30080F839002030B450E8012F93B24A
:10922000C48923448489A34228BF1B1B0489A34209
:1092300002BFBFF32F8F002007E0C3EA020340E81C
:109240000134002CE9D14FF001000A6030BC7047B6
:1092500050E8012FC2EA024240E801210029F7D17B
:10926000704730B450E8022F1FFAA2F3C488A3421B
:1092700002BFBFF32F8F00200DE0C48923448489EF
:10928000A34228BF1B1BC2EA034340E80234002C60
:10929000E8D14FF001000A6030BC704750E8022F5F
:1092A000C2EA224240E802210029F7D17047034672
:1092B00053E8022FD988B2EB324F4FF0000017BFAE
:1092C00092B241EA014142EA014104E05A68B2EB3C
:1092D000324F08BF012043E80212002AE8D170474C
:1092E00030B4044654E8000F0D4644E80053002B08
:1092F000F8D1156030BC704730B4044654E8000F14
:1093000040EA010544E80053002BF7D1156030BC5A
:10931000704730B4044654E8000F00EA010544E801
:109320000053002BF7D1156030BC704730B40446B1
:1093300054E8000F80EA010544E80053002BF7D100
:10934000156030BC704730B4044654E8000F00EBA1
:10935000010544E80053002BF7D1156030BC70477D
:1093600030B4044654E8000FA0EB010544E8005374
:10937000002BF7D1156030BC704770B404464FF035
:10938000000054E8006F0D68AE4207BF44E80023B8
:10939000012044E800630E60002B1CBF0020F0E7B2
:1093A00070BC704730B4044654E8000F88422CBFAC
:1093B000451A054644E80053002BF5D1156030BC32
:1093C000704700000F4800680F4909680A280AD151
:1093D000002908D10D4802686FF070031A404FF061
:1093E00040031A4302600A4880470A480047FEE7E4
:1093F000FEE7FEE7FEE7FEE7FEE7FEE7FEE7FEE745
:10940000FEE700003001001034010010E40E0040BF
:1094100031A20100019201002DE9F05F0546002014
:1094200092469B4688460646814640241BE02846D5
:1094300041464746224600F02FF853465A46C01A86
:10944000914110D311461846224600F016F82D1A05
:1094500067EB01084F4622460120002100F00DF87D
:1094600017EB00094E41201EA4F10104DFDC484641
:1094700031462A464346BDE8F09F202A04DB203AC5
:1094800000FA02F1002070479140C2F1200320FA57
:1094900003F3194390407047202A04DB203A21FA55
:1094A00002F00021704721FA02F3D040C2F12002FD
:1094B000914008431946704700487047100C02005D
:1094C00040EA01039B0703D009E008C9121F08C046
:1094D000042AFAD203E011F8013B00F8013B521EC6
:1094E000F9D27047D2B201E000F8012B491EFBD23D
:1094F00070470022F6E710B513460A46044619469F
:10950000FFF7F0FF204610BD421C10F8011B002998
:10951000FBD1801A7047F0B480EA0102D40F4200F8
:10952000B2EB410F02D20246084611464A0042D031
:10953000C30DDDB2C1F3C752AD1A202D35DAC1F328
:10954000160141F4000204B15242C5F1200602FAAC
:1095500006F12A411044B3EBD05F23D0C4B1012DF2
:10956000A0EBC35009DCF0BC4FF0004202EAC3524A
:10957000DBB200F5000000F097B9400000F1807008
:1095800000EBC350A0F1807040EAD170490009E0BF
:10959000490841EAC071A0EBC35000F50000400843
:1095A00000EBC350F0BC00F076B96142012202EB3F
:1095B0004101001BF6E7F0BC704781F00041AAE7CB
:1095C00080F00040A7E780EA010210B502F00043F6
:1095D000400022D04A001FD0010E01EB1261C0F3FF
:1095E0005600C2F3560240F4000042F40002A0FB11
:1095F000022000047F39140400D0401C50EA1240BD
:1096000001D44000491EC2B20C0604EBD010401C2D
:109610004008802A02D003E0002010BD20F00100A5
:10962000002900DA0020184310BD30B480EA01029E
:1096300002F0004530F0004221F0004013D090B11C
:10964000C30DD40DC2F31601C0F31600E41A41F4A1
:10965000000140F400027D34914201D3641C00E01B
:109660004900002C02DA30BC002070474FF40000A3
:109670000023914201D3891A034340084FEA410174
:10968000F7D151B1914202D14FF0004105E002D231
:109690004FF0010101E06FF0010103EBC4502844D9
:1096A00030BC00F0F8B82DE9FE4F81EA030404F065
:1096B000004421F0004100944FF0000B23F00043E0
:1096C00050EA01045ED052EA03045BD0C3F30A54AB
:1096D000C1F30A552C44A4F2F3340194A0FB0254C4
:1096E000C1F3130141F48011C3F3130343F4801356
:1096F00001FB024400FB034E840A970A44EA8154AA
:1097000047EA8357A4FB076802958D0A05FB078586
:109710004FEA932C04FB0C542705029D4FEA065890
:1097200047EA1637B5EB08056EEB070C870E920E6D
:1097300047EA811742EA8312A7FB0201B6EB0B014D
:1097400064EB00042B0D43EA0C335E1844EB1C5011
:10975000DA465146E7FB0201C5F313044FEA0B3327
:1097600043EA14534FEA0432019C43EA0603A4F18E
:109770000C040294009CCDE900B400F0D2F803B0D0
:10978000BDE8F08F00200146F9E770B521F00043F5
:1097900003430CD0C1F30A550024D5EB040564EB58
:1097A0000403D617AD1AB34102DB0020014670BD99
:1097B000201841EB025170BD96230022114600F0A3
:1097C00073B80EB5C10F80EAE0700844CA070021E3
:1097D00040F233438DE80E000A460B4600F0A1F834
:1097E00003B000BD20F00040C10DC0F3160040F4EE
:1097F00000007F2901DA00207047962903DCC1F1BF
:109800009601C840704796398840704700F0004282
:1098100030F000400AD0C10D01F56071C0F31600B0
:1098200042EA0151C2084007114370470020014637
:10983000704701F0004330B421F0004150EA0102CA
:1098400006D00A0DA2F56072C1F31301002A02DCF2
:1098500030BC00207047440F44EAC104C100E01846
:1098600030BC00EBC25000F016B830B50B460146D4
:1098700000202022012409E021FA02F59D4205D3AF
:1098800003FA02F5491B04FA02F52844151EA2F159
:109890000102F1DC30BD0029A8BF7047401C49001F
:1098A00008BF20F00100704710B4B0FA80FC00FA45
:1098B0000CF050EA010404BF10BC704749B1CCF170
:1098C000200421FA04F411FA0CF118BF01212143FC
:1098D0000843A3EB0C01CB1D4FEA00614FEA1020B7
:1098E00042BF002010BC704700EBC3501044002959
:1098F000A4BF10BC7047401C490008BF20F0010005
:1099000010BC704710B5141E73F1000408DA401C37
:1099100041F1000192185B411A4301D120F001008E
:1099200010BD2DE9F04D92469B4611B1B1FA81F27E
:1099300002E0B0FA80F220329046FFF79EFD044626
:109940000F4640EA0A0041EA0B0153465A460843D3
:1099500013D0114653EA010019D0C8F14002504615
:10996000FFF79AFD05460E46504659464246FFF718
:1099700084FD084305D0012004E020463946BDE8B7
:10998000F08D0020054346EAE0762C4337430A98E1
:109990006305E40AA0EB08000022FD0A44EA4754EC
:1099A0000A3002D500200146E9E701051019694196
:1099B000DDE9084500196941BDE8F04DA2E72DE950
:1099C000FE4F804681EA0300C00F0C46009021F054
:1099D000004123F00045B8EB0200A94105D2404602
:1099E000214690461C460B46024623F00040104399
:1099F00047D0270DC7F30A00C3F30A510290401A5B
:109A0000019040286BDAC3F3130040F4801B0098E8
:109A1000924620B10023D2EB030A63EB0B0B0198B3
:109A20005946C0F140025046FFF727FD06460D4655
:109A300050465946019A00F01BF910EB08006141AD
:109A4000002487EA115284EAE7731A4340D0009A4F
:109A500062B3019A012A4FEA075215DC001B61EB41
:109A600002014FF0004202EA0752CDE90042001C19
:109A700041F5801132462B46FFF753FF03B0BDE896
:109A8000F08F40462146F9E7001B61EB0201001C04
:109A900041F5801300185B412018A2F5001747EB31
:109AA000030140EAD570B6196D4111E06D084FEA27
:109AB000360645EAC0754FEA0752001B61EB02010A
:109AC000001C41F5801149084FEA3000001951414E
:109AD00032462B4603B0BDE8F04FFFF713BF0098A6
:109AE000012240000023D0EB020263EBE0730098F8
:109AF00021464FEAE074B8EB000061EB0401E9E7AE
:109B000083F000435BE781F0004158E72DE9F04D19
:109B100081EA030404F0004B21F0004514464FF0A5
:109B2000000A23F0004150EA050220D054EA010265
:109B30001DD0C5F30A570246C5F31303C1F3130042
:109B4000C1F30A5640F4801543F48013A7EB0608CE
:109B5000101BD64608F2FD3873EB050002D308F15E
:109B6000010801E092185B41B8F1000F03DA002010
:109B70000146BDE8F08D00204FF480110646844672
:109B80000EE0171B73EB050705D3121B63EB0503F0
:109B900006434CEA010C49084FEA300092185B4139
:109BA00050EA0107EDD152EA030012D082EA040024
:109BB00083EA0501084305D0101BAB4106D2012200
:109BC000002306E000224FF0004302E06FF00102A4
:109BD00053101AEB06004CEB085110EB0A0041EB56
:109BE0000B01BDE8F04DFFF78DBEC1F30A52C1F382
:109BF000130140F2FF3341F480119A4202DA00204F
:109C00000146704740F233439A42A2F2334202DCEB
:109C10005242FFF741BCFFF730BC000030B5041ED4
:109C200071F1000404DB4FF00044404264EB010199
:109C3000141E73F1000405DB1C464FF00043524232
:109C400063EB0403994208BF904230BD064C074DB8
:109C500006E0E06840F0010394E8070098471034FC
:109C6000AC42F6D3FFF7D0FA84110200A41102002F
:109C7000202A06DBCB17203A41FA02F043EAE073D0
:109C800006E041FA02F3D040C2F1200291400843BD
:109C90001946704770B58C1810F8015B15F0070372
:109CA00001D110F8013B2A1106D110F8012B03E075
:109CB00010F8016B01F8016B5B1EF9D12B0705D47D
:109CC0000023521E0DD401F8013BFAE710F8013BC6
:109CD000CB1A921C03E013F8015B01F8015B521EE2
:109CE000F9D5A142D8D3002070BD00002DE9F8437A
:109CF0000025DFF894804FF4807601242F460095EC
:109D0000304603F001FD38B1D8F80403204203D0F7
:109D1000304603F0EFFC2543361D64007F1CB6B2CD
:109D2000082FEDD34FF4BE74204603F0EDFC48B18C
:109D3000204603F0DFFC45F000456A460121002083
:109D400003F0A4FC15F0FF0F16D0012600242E42CC
:109D50000ED008EB8401D1F81005D1F81015C0F32E
:109D600004200A4AC1F3014152F8242002B190476D
:109D70007600641C082CEAD3002D02DA684605F050
:109D800049FABDE8F8830000006000404828002040
:109D90002DE9F041040007D0044E4FF47A47751CBA
:109DA0003846A847641EFAD1BDE8F0817000020071
:109DB00070B506465FF0000404F1B000C0B200F0D8
:109DC000D0F8012000F0CDF8102000F0CAF80025EE
:109DD000304600F0E2F86D1CEDB2802DF8D3641C23
:109DE000E4B2082CE8D370BD10B51B2003F07AFC58
:109DF000182003F061FC3220FFF7CAFF182003F09F
:109E000071FCAE2000F0ADF8002000F0AAF81020A0
:109E100000F0A7F8402000F0A4F8812000F0A1F89D
:109E2000CF2000F09EF8A12000F09BF8C82000F0A1
:109E300098F8A62000F095F8A82000F092F83F20AE
:109E400000F08FF8D32000F08CF8002000F089F8A3
:109E5000D52000F086F8802000F083F8D92000F0AB
:109E600080F8F12000F07DF8DA2000F07AF8122076
:109E700000F077F8DB2000F074F8402000F071F873
:109E8000202000F06EF8022000F06BF88D2000F02A
:109E900068F8142000F065F8A42000F062F8A6200D
:109EA00000F05FF8AF2000F05CF80020FFF780FFC3
:109EB0000021BDE81040084600F040B82DE9F04709
:109EC00092468946804600251B4E2FE02038C7B2B7
:109ED000B8F1780F03D94FF0000809F1010909F032
:109EE000FF01404600F02AF85FF0000404EB071081
:109EF000305C00F052F8641CE4B2082CF6D309F18F
:109F00000100C1B2404600F019F8002404EB07102C
:109F10003044007A00F041F8641CE4B2082CF5D318
:109F200008F108006D1C00F0FF08EDB21AF80500FA
:109F30000028CBD1BDE8F0879E02020010B5044690
:109F4000B031C8B200F00DF8102040EA141000F053
:109F500008F804F00F00BDE8104040F00100AFF336
:109F6000008070B505461A2003F0A6FB002405FA10
:109F700004F000064FF0170002D503F0B3FB01E038
:109F800003F09AFB1B2003F097FB1B2003F0AAFBB6
:109F9000641CE4B2082CEAD370BD70B505461A20E3
:109FA00003F0A0FB002405FA04F000064FF01700B0
:109FB00002D503F097FB01E003F07EFB1B2003F0CA
:109FC0007BFB1B2003F08EFB641CE4B2082CEAD35D
:109FD00070BD000070B54FF48076304602F00FFE81
:109FE000114CB50560B1304602F010FE0120C5F8F5
:109FF0000803607920B9012060712168002088473A
:10A000004FF48276304602F0FAFD00280AD030463E
:10A0100002F0FCFD0220C5F808032168BDE870408D
:10A020000120084770BD00002423002010B586B031
:10A03000044614220E496846FFF742FA01208DF8C3
:10A0400009000B480B4A69463C3801F051F908B148
:10A0500000F0FEFF06483C3801F00EF90448A2B2B9
:10A0600000213C3801F046F81128F7D006B010BDA9
:10A070005400020089F4010002490248091F0968DE
:10A0800000680847842300202DE9FE434FF48278BE
:10A09000404603F055FE4C4F00254C4C012600B3C2
:10A0A000404603F055FE94F82E0010B194F82F109E
:10A0B000D1B18DF80050616801912189ADF8081087
:10A0C000E26832B1218B618362602181E56010B169
:10A0D00002E0257400E03E6021686846884784F805
:10A0E0002F5094F82E0060B34FF48077384603F079
:10A0F00027FE30B3384603F02BFE628B94F82D1008
:10A100008A420AD9A2EB010080B260832289A2EBC5
:10A110000000626802EB400005E007D1E06828B16A
:10A1200084F82F60658303F0F9FD04E08A4202D1D0
:10A1300084F82F606583404603F00AFE2248001D24
:10A1400006604FF48877384603F0FAFD48B1384688
:10A1500003F0FEFD257402208DF80000216868469A
:10A1600088474FF48A77384603F0EAFD28B138462D
:10A1700003F0EEFD2574BDE8FE834FF000484FF478
:10A180008C7967691DE000BFB7FA87F028FA00F103
:10A1900009EB80058F43284603F0D2FD88B128469D
:10A1A00003F0D6FDA5F58C75E8088DF8040045F39D
:10A1B0008000401C8DF800608DF80500216868461D
:10A1C0008847002FE0D1D6E7007000401829002012
:10A1D00070B50E46144900EB400001EBC005144673
:10A1E000E86A183520B101280FD0022805D113E004
:10A1F000284600F085F9A04201D2002411E0224651
:10A200003146284600F0B4F90BE0284600F078F912
:10A21000A042F4D20446F2E73146284600F07BF92A
:10A220000446204670BD00006C2F002003F02EBEB7
:10A230002DE9F041914E4FF080548F4DD4F83021EC
:10A2400030782B68511CC0F3031000D1DAB200271C
:10A250004FF00108062A05D1B4F82413884AC1F347
:10A2600004211160D9B2062904D1032802D18649FC
:10A270008448486702F0B6FA28B1D4F8440283490A
:10A28000C0F342300860297830780629C0F3031003
:10A2900006D1032804D17E48016821F08071016055
:10A2A00002F0BEFA40B14FF08040C0F80C71C0F827
:10A2B00010717648001F076029683078CAB2C0F371
:10A2C0000310062A05D1032803D1704B03226433FF
:10A2D0001A60C9B206290ED103280CD16D4A052196
:10A2E00011606C497831C1F800806A480830076015
:10A2F000111D3F20086002F0B1FAE8B3664800681B
:10A30000664908606448001D0068091D08606248CD
:10A3100008300068091D08605F480C300068091D9E
:10A3200008605D4810300068091D08605A48143004
:10A330000068091D086058481830006857492031E6
:10A34000086055481C300068091D086052482030DC
:10A350000068091D0860504824300068091D086025
:10A360004D4828300068091D08604B482C300068B3
:10A37000091D0860484800E018E03030006847498F
:10A3800040310860444834300068091D0860424884
:10A3900038300068091D08603F483C300068091DDE
:10A3A00008603D4840300068091D0860D4F830015D
:10A3B000411C00D128783A4D062804D1D4F858021F
:10A3C00000F04F00286002F0EFF930B13548016825
:10A3D000C90702D06FF001010160D4E94C100629D1
:10A3E00007D1C21E022A04D92F4A136843F480639E
:10A3F00013600A2905D1020003D02A6842F00F0237
:10A400002A604FF01022062907D1C01E032804D964
:10A41000D2F808021D491C310860D2F80002234B13
:10A42000002803DBD2F8040200280EDA012004F031
:10A4300067FD1520C2F8000219680029FCD0C2F897
:10A44000040218680028FCD00BE092F80C02C00748
:10A450000CD0012004F054FDC2F80C7218680028DA
:10A46000FCD0002004F04CFD00F0B4F81149104875
:10A470000860BDE8F0810000E00F00F0E80F00F098
:10A48000403501400DF0ADBA00C007403C0500402A
:10A49000FCED00E0105600400404001020C5004010
:10A4A000E40E0040000400403C17004000E401407E
:10A4B0000090D0030824002004220249024801F041
:10A4C000EDBF0000F4280020008000400422024973
:10A4D000024801F0E3BF0000002900200090004086
:10A4E00004220249024801F0D9BF00000C290020D3
:10A4F00000A0004001480068004700002C23002015
:10A500000269C1688A4203D88068401A104400E09A
:10A51000501A401E70472DE9F047C4681746894617
:10A5200006464FF000083069A04201D9051B02E041
:10A53000B168201A0D1AB0686D1E001BA84200D821
:10A540000546BD4200D33D4670682A462044494630
:10A55000FEF7B6FFB0687F1B2C44A844A944A04274
:10A5600000D10024F460002FDDD14046BDE8F08723
:10A570002DE9F04104468846D4E90207C51BE1688D
:10A58000606816460844B54206D94146FEF798FF72
:10A59000B819E060BDE8F0812A464146FEF790FF19
:10A5A000761B08EB050132466068FEF789FFE6601E
:10A5B000F0E700000FB4054B10B503A9044A029858
:10A5C00000F0FEF810BC5DF814FB0000ADC2010005
:10A5D0008C230020BFF34F8F05480168054A01F422
:10A5E000E06111430160BFF34F8F00BFFDE7000042
:10A5F0000CED00E00400FA0502E008C8121F08C1D3
:10A60000002AFAD170477047002001E001C1121FF3
:10A61000002AFBD1704700000121202803DA814085
:10A620000548014003E0402802DA2038814009B1A2
:10A630000120704700207047FC06FFBD2DE9FF5F39
:10A6400082B00021DDE90430020DDDF840B00343A3
:10A6500018D044F61050A2F2FF324243151411985C
:10A6600001281FD0A5EB0B00401C5FEA000A4FF049
:10A6700000064E4FDFF83891B046504615D5CAF166
:10A68000000413E0119801244AA3012801D16FEAC4
:10A690000B010298119AC0E90031C0E9024206B0EC
:10A6A000BDE8F09FCBF10000DFE704460021404AFF
:10A6B000491842EB0450CDE9001012E0E00707D042
:10A6C00032463B4640464946FEF7EDFF8046894606
:10A6D00032463B4610461946FEF7E5FF06460F4652
:10A6E0006410002CEAD1DDE90401DDE90023BAF1B0
:10A6F000000F06DAFEF7D7FF42464B46FEF7D3FFC0
:10A7000005E0FFF703FA42464B46FFF7FFF9044620
:10A710000E460022284BFFF781FA03D84FF0FF3096
:10A72000014607E00022254B20463146FFF747F956
:10A73000FFF75BFA102409E0002C0ADB0A22002351
:10A74000FEF76AFE039B30321A55641E50EA01027E
:10A75000F2D1641C039AC4F111031444119A012A22
:10A7600003D0012208430DD10AE0084304D00020A1
:10A770004FF0110B119072E7A3EB0B056D1E0DE06E
:10A780005B4504DD4FF0000205F1010504E003DA4A
:10A790004FF00002A5F10105002AECD002981199B2
:10A7A000C0E90231C0E9004579E70000000014402B
:10A7B0000000F03F300000000000F0430000E03FE8
:10A7C0002DE9FF4F95B09A46884606460025EEE1F2
:10A7D000252877D100242746F94A0121039400E077
:10A7E000044316F8013F203B01FA03F01042F7D171
:10A7F00030782A2811D06FF02F033078A0F1300282
:10A80000092A16D8039A44F0020402EB820203EBF1
:10A8100042021044761C0390EFE758F8042B039291
:10A82000002A03DA504244F40054039044F0020436
:10A83000761C30782E2816D116F8010F44F0040447
:10A840002A280DD06FF02F023078A0F13003092BA9
:10A8500009D807EB870302EB4303C718761CF3E71D
:10A8600058F8047B761C30786C280FD006DC4C2816
:10A8700017D068280DD06A2814D104E0742810D0AD
:10A880007A280FD10DE044F400140AE044F4801457
:10A8900001E044F440147278824202D104F580143D
:10A8A000761C761C307866280BD013DC582877D0BD
:10A8B00009DC002875D04528F6D04628F4D0472872
:10A8C0001AD193E118E0632835D0642879D065283F
:10A8D00012D18BE1702873D008DC6728F1D0692889
:10A8E0006FD06E280DD06F2806D1ACE073282CD025
:10A8F000752874D0782853D05246179990476D1C0C
:10A9000054E1C4F30250022809D003280DD0D8F82E
:10A91000001004280DD00D6008F1040846E1D8F8B5
:10A920000010EA17C1E90052F6E7D8F800100D80D0
:10A93000F2E70D70F0E718F8041B8DF80010002006
:10A940008DF80100EB46012003E058F804BB4FF0FE
:10A95000FF3061074FF0000102D40DE009F1010161
:10A960008946B9420FDA8145F8DB1BF80910002946
:10A97000F4D108E009F1010189468142FADB1BF8B4
:10A9800009100029F6D103985346A0EB0907214688
:10A990003846179A00F080FA284400EB090507E0D2
:10A9A00044E008E10DE01BF8010B5246179990476F
:10A9B000B9F10109F7D2534621463846179AF2E019
:10A9C00039E00A21C4F302524FF0000B0091022A31
:10A9D00006D058F8040BC117032A09D00AE023E077
:10A9E00008F1070020F00702F2E80201904605E0B6
:10A9F00000B2C117042A01D140B2C117002906DAFA
:10AA00000A460021404261EB02012D2202E02205AC
:10AA100004D52B228DF80420012203E0E20701D0A7
:10AA20002022F7E7914657E00A2100E010214FF07D
:10AA3000000B00910BE010214FF0000B44F00404D8
:10AA40000827009103E008204FF0000B0090C4F3AA
:10AA50000252022A05D058F8040B0021032A08D01C
:10AA600008E008F1070020F00702F2E80201904632
:10AA700003E080B2042A00D1C0B24FF000092207DF
:10AA80002AD53278702A07D0DDF800C08CF0100C7F
:10AA90005CEA0B0C05D00EE040228DF80420012268
:10AAA00008E050EA010306D030238DF804308DF819
:10AAB000052002229146009B83F0080353EA0B0312
:10AAC0000AD150EA010201D1620705D530228DF882
:10AAD00004204FF001097F1E3278582A04D039A291
:10AAE0000C920CAA02920BE03BA2F9E75B46009A9B
:10AAF000FEF792FC0C9B9B5C029A521E0292137012
:10AB000050EA0102F2D1029804A9081A00F1200BC0
:10AB1000600702D524F4803400E001275F4502DDA0
:10AB2000A7EB0B0000E0002000EB0B010090039866
:10AB30004944401A0390E00306D453462146179A2D
:10AB4000039800F0A9F90544002706E001A8524641
:10AB5000C05D179990476D1C7F1C4F45F6DBE003E5
:10AB60000CD553462146179A039800F095F90544F1
:10AB700004E030205246179990476D1C0099481EFA
:10AB800000900029F5DC08E002980299524600780E
:10AB9000491C0291179990476D1CBBF10001ABF164
:10ABA000010BF1DC5BE100F065F90544761C3078BF
:10ABB00000287FF40DAE19B02846BDE8F08F0000E4
:10ABC0000928010030313233343536373839616283
:10ABD0006364656600000000303132333435363747
:10ABE000383941424344454600000000600700D424
:10ABF000062708F1070020F00700F0E8022380464E
:10AC000003F0004C5FEA0C0001D097A009E020059A
:10AC100001D596A005E0E00701D095A001E0AFF2D4
:10AC20004C001390307823F0004365280CD006DCEC
:10AC3000452809D046281DD047287FD13BE066280B
:10AC400018D067287AD136E00021112F01DB1120BE
:10AC500000E0781CCDE9000104A90CA8FFF7EEFC88
:10AC6000DDE90D010C9A4FF0000B07F1010910927C
:10AC700000914EE04FF000400097CDE9011004A98B
:10AC80000CA8FFF7DBFCDDE90D020C9B0F994FF0E0
:10AC9000000B91461093009211B9791C00EB010949
:10ACA000B7EB090003D4C0F1FF3B07F10109A9EBA1
:10ACB0000700019042E0012F00DA01270021112F47
:10ACC00001DD112000E03846CDE9000104A90CA8FF
:10ACD000FFF7B4FCDDE90D010C9A00914FF0000B79
:10ACE000B946109221070FD4009A4A4503DA9146DB
:10ACF00001E0A9F10109B9F1010F05DD109AA9F1EF
:10AD00000101515C3029F4D0B84202DA10F1040F8D
:10AD100003DA0121CDE9011010E0002803DC8344AF
:10AD2000A9EB000102E0411C494500DD8946A0EB8A
:10AD30000B00401C01904FF000400290200705D40A
:10AD40000198484502DB4FF0FF30019000208DF85C
:10AD50004B0002980DF14B07B0F1004F25D00220B7
:10AD60000C902B200D90029800280CDA40420290A3
:10AD70002D200D9007E00A210298FEF776FD303174
:10AD8000029007F8011D0C99481E0C900029F2DC76
:10AD900002980028EFD1791E0D980870307800F0E5
:10ADA000200040F0450007F8020D11A8C01BC01D8F
:10ADB00002901398007800B1012000EB090101987E
:10ADC00001EBE071029801440398401A401E039081
:10ADD000E00306D453462146179A039800F05CF826
:10ADE00005441398007818B15246179990476D1C86
:10ADF000E00323D553462146179A039800F04CF8F8
:10AE000005441BE0BBF1000F07DB0098584504DD4B
:10AE10001098179910F80B0001E01799302052464E
:10AE2000904701980BF1010B401E05F101050190BF
:10AE300004D12E205246179990476D1CB9F100019C
:10AE4000A9F10109DEDC05E017F8010B524617995C
:10AE500090476D1C0299481E02900029F4DC53466D
:10AE60002146179A03989EE62D0000002B00000053
:10AE7000200000002DE9F041044600251E4617463B
:10AE8000880404D405E039462020B0476D1C641EB8
:10AE9000F9D52846BDE8F0812DE9F04104460025AA
:10AEA0001E469046C80301D5302700E020278804BD
:10AEB00004D505E041463846B0476D1C641EF9D5FF
:10AEC0002846BDE8F0810000F8B50E460446154658
:10AED0006946002003F032FCBDF90000FEF771FC6A
:10AEE000194A1A4BFEF7DFFB6FF00902FEF74DFC23
:10AEF000FEF79FFC3168B1F5FA6F04DA2168FEF7BE
:10AF00000AFB20601CE012492068FEF78EFB2060DF
:10AF1000FEF77CFC02460B460EA0FFF74BFB2868B1
:10AF200000270A2807DC2946204601F095F9286801
:10AF3000401C286000E02F6001F04EF93760276068
:10AF40003068401C3060F8BDCDCCCCCCCCCC0C40B3
:10AF50000000FA4476616C3A2566760D0A0000001E
:10AF6000800701D00020704701207047C3688B42E2
:10AF700006D811440069491E814201D8012070475A
:10AF80000020704710B501220221002000F028FFA8
:10AF900008B1072818D107220221012000F020FF64
:10AFA00008B1072810D100210A22084600F018FF36
:10AFB00008B1072808D111220121032000F010FF59
:10AFC00008B1072800D1002010BD000010B572B6EE
:10AFD00002F0C8FD02F028FC0028FBD111481249FC
:10AFE000401AC408012000EB044010A102F036FD15
:10AFF00011480068C00700D000BE022000EB0440EA
:10B000000EA102F02BFDBFF34F8F0B48E43801680F
:10B010000E4A01F4E06111430160BFF34F8F00BF9E
:10B02000FDE7000034120200B411020046617461B1
:10B030006C206572726F7200F0ED00E053797374EA
:10B04000656D207265736574000000000400FA05E8
:10B050000EB500210091CDE901106A4644F20100CD
:10B06000FFF7B4FF0EBD10B58268C368934203D0EA
:10B0700001F060F8002010BD052010BD29B112B10B
:10B08000531E134203D0092070470E207047016001
:10B09000838000218160C1600846704710B58268D6
:10B0A000C3689A1A83889A4203D801F04DF80020A9
:10B0B00010BD042010BD000030B542680B4C137960
:10B0C000E15C0120FF290ED0FE290DD012684FF45B
:10B0D000A86505EB81015158054A52F82320914299
:10B0E00002D1FF20E054002030BD00009123002059
:10B0F0008429002003681B8B9BB253436422B3FB5B
:10B10000F2F292B2AFF3008070B5044600681646C2
:10B110000D4690F8212001EB450100EB8101022A48
:10B1200001D0082070BD4968B14205D1C16911B391
:10B130006068007988471EE02046FFF7BDFF08B130
:10B14000112070BD61680D4AFE20097950543246C5
:10B150002946204604F0CCF92068C06958B16168DE
:10B16000064A02200979D21C02EB4101485502210E
:10B17000606803F082FB002070BD00009123002076
:10B180002DE9F84F07688946054601EB490897F80D
:10B1900021001E46924607EB880410B10820BDE846
:10B1A000F88F4FF0000B3248C4F804B0A672006864
:10B1B00000900A22296802EB8800085C40B1002058
:10B1C0008DF801006946504603F086F8B0B901E0F9
:10B1D0000120F5E747F828A04FF001084FF0A04103
:10B1E00008FA0AF016B1C1F80C0501E0C1F808052B
:10B1F0000027E019083003F037F908B10420CEE742
:10B200007F1CFFB2022FF4D3207A03F085F9607A15
:10B2100003F082F9206836B102F03AFF0646206852
:10B2200003F00AF905E003F007F90646206802F08A
:10B230002FFF07464946686803F010FB0146207A55
:10B24000324603F047F90221686803F007FB014624
:10B25000607A3A4603F03EF984F80B806968054A43
:10B26000097902EB410202F809B0002097E70000DB
:10B27000380A0200942300202DE9F0470025DFF86A
:10B280006C9007680446A846626805EB450007EB2A
:10B290008006137909EB430202F80580F17A71B157
:10B2A0000A22216802EB8000085CE0B100213068CE
:10B2B00003F082F8306803F06DF8C6F804806D1C66
:10B2C000022DE1D36168094AFF200979D21E50544A
:10B2D000606803F0A2FA606803F0F0FA022087F8D1
:10B2E0002100BDE8F0870121E1E700009423002060
:10B2F0002DE9F74F84B00E00044607D0256895F875
:10B30000210028B1082007B0BDE8F08F0B20FAE734
:10B3100001F0BEFC18B1852801D00420F3E702F04B
:10B32000D1FF20B902F094FF08B10320EBE75048A9
:10B33000DFF840A1002100784FF0010BC0F30310AB
:10B34000032821D08AF800B0FF2285F820200020B1
:10B3500091464FF0FF3C00BF00EB400705EB870331
:10B36000401CD97283F8089083F80990C0B245F860
:10B3700027C00228F0D305F1200003F075F830B1A2
:10B38000204604F04DF8C8E78AF80010DCE70027F3
:10B3900056F82720501C12D0F0193946037A20465F
:10B3A000FFF7EEFE5FEA000804D0204604F038F80C
:10B3B0004046A8E7002239462046FFF7A5FE7F1C3D
:10B3C000FFB2022FE4D3002009224FF480533169E9
:10B3D00001E04908401C994201D39042F9D39AF800
:10B3E000001009B100B90120234AD2E90112CDE9C8
:10B3F00001128DF804006068204A01A900790290CA
:10B40000606803F07FFA070004D0204604F008F8D3
:10B41000384678E7616830690968D1F81015CAB212
:10B42000010F0001FEF738F80646A861606803F0D6
:10B43000F4F9CDF800B05F4604233246022160687B
:10B4400003F04AFA0221606803F010FA0698E861F6
:10B4500060680B49074A0079521C41F82040616836
:10B46000097902F8019085F8217000204BE700006F
:10B47000E80F00F090230020380A020095F4010044
:10B4800090290020F8B50446002617460D468DF891
:10B490000060684600F0BEF8D4E90201C04370EADB
:10B4A000010005D09DF8000000F0D8F80020F8BD9C
:10B4B00000F004FF40197141C4E902019DF8000049
:10B4C00000F0CCF8A761206900B125612146BDE8F4
:10B4D000F840002004F0DCBA38B5044600208DF8AE
:10B4E0000000684600F096F8D4E90201C04370EA13
:10B4F00001000DD04FF0FF30C4E902009DF80000BC
:10B5000000F0ACF82146BDE83840012004F0C0BA94
:10B510009DF8000000F0A2F8002038BDF0B5244EE0
:10B5200089B01F460D00044672603FD0A888296884
:10B5300082B22048FFF7A2FD002835D1A889A9686A
:10B5400082B21C481030FFF799FD00282CD1202230
:10B5500019496846FDF7B4FF60690690207C00B188
:10B5600001208DF814008DF81C70607C00B10E2055
:10B570008DF81500E0680290A068039020680190A3
:10B58000606800900A480D4A6946083001F08CFB5B
:10B59000002809D1B0702068401C05D00449012260
:10B5A000491CC81D01F0B4FB09B0F0BD0720FBE742
:10B5B0006423002058290020CC08020031FB010040
:10B5C00010B501461048FFF769FD040019D10F4876
:10B5D0000F4A0178515C19B1001D03F083FC02E0B1
:10B5E0000C3003F059FB60B9084907480839FFF7E8
:10B5F0003AFD30B9054901220839044801F098FBA9
:10B600000446204610BD0000682900206C2300205D
:10B610001823002030B5EFF3108172B60D4A9468FC
:10B62000012324B10370002900D162B630BD9360BC
:10B630004FF0E023D3F88051074C25401560C3F844
:10B640008041D3F8844154605A17C3F88421002202
:10B650000270E8E778290020FC06FFBD0B498A68E4
:10B66000002A11D000280FD1EFF3108072B60B68BA
:10B670004FF0E022C2F800314B68C2F804310022DA
:10B680008A60002800D162B6704700007829002047
:10B690002DE9F041064608680C46411C4FF0A047D2
:10B6A0004FF0010506D005FA00F1C7F8081520682B
:10B6B00001F0C7FF6068411C02D0002101F0A7FF24
:10B6C0003168A069C1F82405607D227D316810438E
:10B6D000C1F86C05D4E900123068C0F81425C0F830
:10B6E0000C15207D012815D1A068411C02D0002135
:10B6F00001F08DFFE068411C05D08540C7F8085572
:10B70000E06801F09EFFD4E902123068C0F8082515
:10B71000C0F81015BDE8F0812DE9F0410646086833
:10B720000C46411C4FF0A0474FF0010506D005FA2A
:10B7300000F1C7F80815206801F08DFF6068411C12
:10B7400002D0002101F06CFF3168A069C1F8240526
:10B75000607D217D32680843C2F86C05D4E900128F
:10B760003068C0F80C15C0F81425207D012815D1CB
:10B77000A068411C02D0002101F052FFE068411C8A
:10B7800005D08540C7F80855E06801F064FFD4E9AA
:10B7900002123068C0F80825C0F81015BDE8F08125
:10B7A000400C01D0002070470120704770B5150093
:10B7B000044609D00020286034B1206820B1A07967
:10B7C000800703D0072070BD0E2070BD084600F032
:10B7D0007AF9C0B2142804D02179814203D8042018
:10B7E00070BD052070BDE288216800FB0210286052
:10B7F000002070BD18B504460020ADF800001346C7
:10B800006A46204600F006F8002802D0BDF8000085
:10B81000204418BD70B5E0B1DAB1002402E0045D47
:10B820002C44A4B2651C8D4206D21688A642F6D8D6
:10B83000061976789E42F2D18C420AD2A31C005D92
:10B840009BB200B1401E0004000C02D01C188C42B8
:10B8500001D9002070BD138070BD10B50288102A78
:10B860001BD0112A20D0262A1DD1007A0C4601288F
:10B8700001D0022817D1A0780521401CB0FBF1F2BD
:10B8800001FB1201204600F01DF800280BD0A16B2F
:10B89000002908D0BDE810400847C27B012A02D128
:10B8A0008088A1F8E80010BD0C46002184F8F21051
:10B8B0008088B4F8E8108842F5D120790028F2D1C8
:10B8C0000121DFE72DE9F05F044600780F4698B1CB
:10B8D000A7700025C4F8EA50A4F8EE5084F8F050A0
:10B8E000A079012608B1012F09D0E07980B1012F9C
:10B8F00005D0022F03D00BE00820BDE8F09F616B5C
:10B9000021B184F8F1600820884701E084F8F15003
:10B9100004F1EB0100200A5C0AB1304603E0401C50
:10B920000628F8D300204FF002084FF0030A4FF02A
:10B93000040B012F06D0022F0CD0032F0FD0042FA1
:10B9400015D110E0A17929B194F8241011B908B1EA
:10B9500030460DE0E17911B108B1404608E0207AA7
:10B9600008B1504604E0607A08B1584600E0284625
:10B97000A070616B41B1032801D0042804D1607923
:10B9800010B194F8F20098B184F8F35004F13C003F
:10B9900018210746FDF7ADFD84F83C6004F12C004A
:10B9A00003F0F0FB58B194F82C0084F8510008E043
:10B9B00084F8F45084F8F36007208847E6E784F8B9
:10B9C000516094F8240058B104F1280003F0DAFB28
:10B9D00020B194F8280084F8520001E084F8526005
:10B9E00084F85050A27804F1EA0104F1D409052A40
:10B9F0004DD2DFE802F065030F1B320084F831609E
:10BA0000C4F8E450C4E9101584F83C808020A4F800
:10BA100048003EE084F8318087F800A0228ABA818D
:10BA2000C4F8E4507960E168B96032E06069B860F8
:10BA3000208BB8813D4684F83C60204604F084FAAF
:10BA400040B185F814800421204600F08BFBF0B94A
:10BA5000052115E084F831A017E0E069B860208C7A
:10BA6000B8813D4684F83C60204604F06DFA50B140
:10BA700085F814800421204600F074FB38B90621B3
:10BA800084F8311001E084F831B0C4F8E490A07873
:10BA900078B13A4604F15400D4F8E41072DF00287B
:10BAA0007FF42BAF94F8301094F8540073DF002823
:10BAB000F6D1616B11B194F83100884700201CE782
:10BAC00084F83150F5E710B5044600F005F808B1E8
:10BAD000204610BD142010BD142801D3002070474B
:10BAE0000146014800F02EBFBC27002010B51A4CBB
:10BAF0000188606810290ED011292BD1401E60608A
:10BB000028D1FFF73FFA002824D02168002921D04E
:10BB1000BDE810400847D0B900210122084600F0D6
:10BB20005FF908B107280FD107220221012000F098
:10BB300057F908B1072807D104220221002000F09C
:10BB40004FF920B1072802D0216801B18847606809
:10BB5000401C606010BD0000082300202DE9F04764
:10BB600001883B4E40F2F3194FF6FF7510291BD0A8
:10BB700011293ED0122954D0502946D1C188F289CA
:10BB8000841D914241D1618902293ED18688304687
:10BB900000F0C8FB050038D004F10C0000F01CF9DF
:10BBA000A8B3294630464EE0C17B87880446012968
:10BBB0002BD1A846284600F0B5FB050017D02F80F2
:10BBC00000202872234843464A460168C5F80A10F7
:10BBD0004068C5F80E0004F1100105F10A0000F0FC
:10BBE0009BFC6872F08900280FD129462AE00420C6
:10BBF00013E0808800F096FB040006D06068FFF731
:10BC00006BFC08B103F00AFE2580BDE8F087FFE772
:10BC10006868FFF761FC0028F7D0BDE8F04703F043
:10BC2000FDBD87880646384600F07CFB0400ECD05A
:10BC30002B464A4606F1080104F10A0000F06CFCAC
:10BC4000607221463846BDE8F04700F0E1B90000D7
:10BC50009C270020102300202DE9F04702888688C9
:10BC6000DFF8F8A098B0102A0DD0112A46D00AF1BA
:10BC70001003192A61D01A2A6CD1007A0409042C05
:10BC800043D3012242E0354C083CA068C0430B90EE
:10BC900061680BA800F07AFE0B990CA800F098F9E7
:10BCA0002C220CA96846FDF70BFC0027E8460FE0A4
:10BCB00008EB47005FF00005B0F8049004EB850046
:10BCC0004946001D00F033FE6D1C1E2DF6D37F1C6F
:10BCD0000098B842ECD8142E05D318B00420BDE863
:10BCE000F047FFF7B5B93146504600F036FE18B0C0
:10BCF0003146201DBDE8F04700F02FBE18B0314698
:10BD00005046BDE8F04700F012BE0022314618460A
:10BD100000F023FA032C01D3012200E000220F4897
:10BD200031460C3000F019FA022C01D3012200E058
:10BD300000220A483146083007E0017A002909D17B
:10BD4000407A3146C0F3C002184618B0BDE8F0474B
:10BD500000F003BA18B0BDE8F0870000C02700204B
:10BD600030B587B00446002928D0002C26D00846DC
:10BD70002188102924D0502928D057291ED10546C2
:10BD8000A18840696A46FFF711FD002816D1009886
:10BD90000078002812D0A86900280FD0182101A827
:10BDA000FDF7A7FB01208DF804000295A088ADF8EF
:10BDB0000C0000980490A96901A8884707B030BD1D
:10BDC00007B02146BDE8304003F0C6B807B02146B1
:10BDD000BDE8304003F094B9007800F001007047EE
:10BDE00070B50023042810D20D4D00EB4004012A49
:10BDF00002D101290CD00022094E00EB4000304452
:10BE000061B1012906D0022906D00723184670BD6A
:10BE10000E30C2B22A55F9E74270F7E78270F5E7B3
:10BE2000582700202DE9F84F0546861C00208DF884
:10BE3000000091460F464FF0010A6846FFF7EAFB03
:10BE40001B4C04F21C4860683860D4E90101194FAA
:10BE5000401A3968081A0EE00121404600F090FDB2
:10BE600000F08CFB0146404600F08AFDD4E9010158
:10BE7000401A3968081A401C8642EDD8B9F1000F03
:10BE800003D0052065F3891002E0062065F39F507A
:10BE900061683A68114004EB8101C8606068304411
:10BEA00060609DF80000FFF7D9FB5046BDE8F88FB1
:10BEB0004C2B0020B023002070B50D4604460A2903
:10BEC00002D10D21FFF7F8FFA0682268411CA16094
:10BED0001554D4E90101814204D32046BDE87040E5
:10BEE00000F043BF70BD0000044881684068814293
:10BEF00001D1012070470020704700004C2B00202A
:10BF000005494FF0FF32082841F8202002D30844A9
:10BF100080F848207047000048280020F0B54FF016
:10BF2000FF3512B10023082601E008230C260C4C33
:10BF300005E000BF54F823707F1C04D05B1CB342A3
:10BF4000F8D32846F0BD26185DB286F8305044F884
:10BF50002310002AF5D1E11881F84800F1E700002C
:10BF6000482800200249084490F93000704700003A
:10BF70004828002070B5084C050009D0103421680D
:10BF8000002907D008682060496828468847F6E7F6
:10BF90000834F4E770BD000034280020054A012170
:10BFA00020B1012805D19170FFF7E4BF5170002046
:10BFB000FAE770473428002010B5D0E90234D1E9FF
:10BFC0000220D11AA04101D3012010BD002010BDD4
:10BFD00073B58CB00646002000900D9880B1002407
:10BFE0006D4621460DA800F0ADFC30B1009805EB80
:10BFF000400084800098401C0090641C142CF0D3F6
:10C000002C2269463046FDF75BFA0EB070BD000089
:10C0100038B54A7A0F4B62B100220A725969002979
:10C0200006D001228DF80020ADF80200684688474E
:10C0300038BD0A7A62B19B684C68024619462046B0
:10C04000FFF720FA0028F3D0BDE8384003F0E6BB44
:10C050005B68F1E79C27002010B50021024800F042
:10C06000A5FC80F3100010BD682F00200068D0F8F8
:10C070000405704790F90400002809DB00F01F0256
:10C08000012191404009800000F1E020C0F8001239
:10C09000704700002DE9F843104D0F4680461E46BC
:10C0A00091466946286800F016FC040014D01C2153
:10C0B000FDF71FFA01202071C4F81490380BC4F862
:10C0C0000080C4E902606946286800F025FC03F09E
:10C0D000D5FA0020BDE8F8830420FBE7A40A02009B
:10C0E00030B50446006887B00D46806800281FD030
:10C0F00018216846FDF7FDF90195A06805902079A3
:10C1000010B1012810D107E001208DF8000020694E
:10C110000290E068039005E002208DF80000E068DE
:10C12000000302906069049020688168684688472F
:10C1300007B030BD826883881A4003689A5C0A7031
:10C140008168491C81607047C26883881A4003680F
:10C150009954C168491CC16070470AB100F0FDBB29
:10C1600000F0E5BB70B50D460446B0F8D810D0F825
:10C17000D4000122FFF73EFB00B1057004F13C0240
:10C1800004F1D40104F1540072DF70BD10B50F4901
:10C1900000220F4800F07EFF08B1FEF759FF4FF074
:10C1A000102040694FF08050016940690948002320
:10C1B0004FF430310269064800F0D0FE002803D069
:10C1C000BDE81040FEF744BF10BD0000B40A0200F5
:10C1D0000C240020EC2200202DE9F047164DDFF85A
:10C1E0005C80DFF85C9000244FF430374FF4FA366F
:10C1F00004EBC40000EB0410104A07EB8001042399
:10C200001432104800F0B8FF691C30468847D8F84F
:10C210001400FDF7D1FA4946FDF707FAFDF7F6FAE3
:10C2200002460B46214608A0FEF7C4F9641C0A2CFE
:10C23000DEDBBDE8F087000000000200EC220020F9
:10C2400000007A440C2400207265616425643A255C
:10C2500066560D0A0000000038B50C46006810490B
:10C26000FDF7B1F9FDF7BEFA0E490E4A0423C86086
:10C270000020009020680C3200EBC00101EB0010A0
:10C280004FF4303101EB8001074801F093F808B119
:10C29000FEF7DEFEBDE83840034803F073BE000041
:10C2A00000007A44EC2200200C24002010B5044643
:10C2B000C0B2FFF785F9204610BD704710B50B4896
:10C2C000FFF7D4FE094A083AD2E90434C018D2E98B
:10C2D000063244F10001C31A71EB020204D24FF09E
:10C2E0008072801841F1000110BD00004823002039
:10C2F00010B50A4941600A4800F03FFB58B901F007
:10C30000D7FD07491C238C22087404488C39001F70
:10C31000006800F0CDFA002010BD0000A80A02005D
:10C32000382A00200146034802888A4200D00020B3
:10C3300070470000882700202DE9FC5F0E0083462F
:10C34000DDE90C47C6F1000098469246814600D4CC
:10C350000846012503E000BF90FBFAF06D1C504534
:10C36000FADAA84500D9454624B1002E01DB78074A
:10C3700000D5641EB80702D5B8F1000F0AD0F8073F
:10C3800008D13CB1A54205D220215846641EFFF7D2
:10C3900093FDF6E7002E02DA4E462D2102E07807E3
:10C3A00003D52B215846FFF787FD07F0030002282D
:10C3B0000BD1B8F1000F08D13CB1A54205D2302114
:10C3C0005846641EFFF778FDF6E7CDE9004743467F
:10C3D00052463146584603F05DFDBDE8FC9F000023
:10C3E00070B50D46044600684FF4887101F0FCFDFD
:10C3F0004FF49071206801F0F7FD4FF492712068BE
:10C4000001F0F2FD4FF4A271206801F0EDFD4FF450
:10C41000AC71206801F0E8FD20681249C0F80413EF
:10C420002068690740F30730090E002804DB00F19B
:10C43000E02080F8001405E000F00F0000F1E0209B
:10C4400080F8141D206840F30730002809DB00F055
:10C450001F02012191404009800000F1E020C0F856
:10C46000001170BD100342000246002012685307FD
:10C4700013D502F00300012802D002280CD105E0F8
:10C48000C2F383100B68801C184404E00223086880
:10C4900003EB925210440860012070472DE9F041EF
:10C4A000174688460646002417E000BF4FF4A070E8
:10C4B00000EB84054FF480307159A04059B1D6F893
:10C4C0000413014207D02946304601F071FDD8E936
:10C4D000002128469047641CE4B2BC42E6D3BDE884
:10C4E000F08100000121814003484068014201D0F1
:10C4F00001207047002070473423002001460120AE
:10C500008840FFF74DB900000248007A002800D0AB
:10C5100001207047382A0020F0B58488A51894427D
:10C5200000D82246A41AC288D6189A4200D81346C8
:10C53000D21A4B880788BB420CD34088834209D863
:10C540008888A04206D3A84204D8C888904201D364
:10C55000B04201D90020F0BD0120F0BD0121814091
:10C56000C80300D001207047F721018017214180C6
:10C570000021017141717047704700002DE9FF41B2
:10C580000026244800F0F6F92248001F074600F074
:10C59000F1F9214C2149A06800900D6800E0009855
:10C5A0006946284004EB80000C30FFF75DFF00284F
:10C5B000F5D101AA009901EA050304EB8303491CA4
:10C5C000DB6842F82030401C00910228F2D3019829
:10C5D00000F0030001280BD0022810D1019803219C
:10C5E00001EB90500099BDF80A6001EB900005E066
:10C5F0000198BDF80A60C0F38310084400903846E3
:10C6000000F0B5F908B10098A06004B03046BDE86C
:10C61000F0810000642F00204C2B0020B02300206C
:10C620008EB0002006900790089018222A4968468C
:10C63000FCF746FF294809904FF4807028490C9078
:10C64000CDE90A010723274A09A96846FEF766FFD4
:10C6500008B1FEF7FDFC03F0DFF901F0F9FD08B1C8
:10C66000FEF7F6FC1C480022403801A90068019042
:10C6700003208DF805001E2001F084FD08B1FEF7AF
:10C68000E7FC01211E2001F01BFD02F043FE3220D9
:10C69000FDF7CCFC03F096F9FFF778FD02F03CFCC7
:10C6A00003F048F80C48283802F008F90A48203806
:10C6B00002F004F90CA204210220FDF7FFFB0C4C50
:10C6C00007AA06A908A8FEF7FFFB0348012128389E
:10C6D00002F094F8E080F3E730000200202400200C
:10C6E000202500201DFB010050574D2000000000B8
:10C6F000EC2200202DE9F047C5881E1DB6FBF5F79A
:10C700008946B6FBF5F1044605FB176C40791668BF
:10C710006843DDF820A0F718001F874200D9C61A29
:10C72000166001E02468491E0029FBD1A5EB0C0727
:10C730008846B74216D818E004EB0C00001D09EB40
:10C740000803BAF1000F3A4602D00146184600E04D
:10C750001946FCF7B5FE2468F61B4FF0000CB844F0
:10C76000B54201D9374600E02F46002EE4D1BDE89E
:10C77000F087000030B5024651B101F0DBF900212D
:10C78000074C08E034F821301568AB4202D1116043
:10C79000002030BD491C8142F4D3052030BD00008B
:10C7A00000000000704700004FF08050D0F83011BA
:10C7B0004A1C07D0D0F8340106290ED00A2909D026
:10C7C0000020704706480178054808300078C0F31B
:10C7D0000310F1E708B10128F3D0012070470000F1
:10C7E000E00F00F04FF08050D0F830114A1C07D015
:10C7F000D0F8340106290ED00A2909D0002070474C
:10C8000006480178054808300078C0F30310F1E7C6
:10C8100008B10128F3D0012070470000E00F00F0BC
:10C820004FF08050D0F830114A1C07D0D0F83401B6
:10C8300006290ED00A2909D0002070470648017841
:10C84000054808300078C0F30310F1E708B101286B
:10C85000F3D0012070470000E00F00F04FF080504F
:10C86000D0F830114A1C06D0D0F8340106290AD07D
:10C870000A290CD010E009480178084808300078EF
:10C88000C0F30310F2E7C01E012803D804E008B18A
:10C89000012800D00120704700207047E00F00F011
:10C8A00010B5FCF704FD08B1002010BD112010BD2B
:10C8B00010B531B1B2FBF3F403FB14241CB1092011
:10C8C00010BD0E2010BD0160002141608160828199
:10C8D000C381084610BD70B50C460546FCF79CFCAC
:10C8E000002802D021882868084470BD10B50A8845
:10C8F00049888A4203D1FCF7D1FC012010BD0020F9
:10C9000010BD70B50C460546FCF7ABFC002802D004
:10C9100061882868084470BD10B50A8849888A4231
:10C9200003D1FCF795FC012010BD002010BD01F0E3
:10C930001F0301229A40D243490900EB81001146AE
:10C9400000F024B84A0950F8220001F01F0201212A
:10C950009140084000D00120704701F01F030122E0
:10C960009A40490900EB8100114600F024B80021EB
:10C9700000F012B8012100F01EB8012100F011B83A
:10C9800008B56A46FCF7DFFC009808BD08B56A46A2
:10C99000FCF7BFFC009808BD08B56A46FCF7B9FC77
:10C9A00008BD08B56A46FCF7A7FC08BD08B56A468D
:10C9B000FCF796FC08BD08B56A46FCF79DFC00989C
:10C9C00008BD08B56A46FCF7CBFC009808BD38B531
:10C9D000044600258DF800506846FEF71BFE2168CE
:10C9E0006268086890420ED9401E08600178238A68
:10C9F000E26801FB0325227A2168101AC0B20A7985
:10CA0000824200D208719DF80000FEF727FE2846FA
:10CA100038BD38B5054600208DF800000C46684644
:10CA2000FEF7F8FDE868298A201AB0FBF1F12A68C0
:10CA30001068431C136001709DF80000FEF70EFEA5
:10CA400038BDC20800F007030120895C9840084007
:10CA5000704700007CB50C468188002933D10288DC
:10CA60000025102A06D0112A09D03A2A0BD0552ABF
:10CA70002ED129E00146204602F0A4FA28E0A01DAC
:10CA8000FFF772FD24E02246408934F8063F8342D6
:10CA900000D818466080172800D217206080D06820
:10CAA00078B1607968B1184BD3E90003CDE9000390
:10CAB000ADF802106088ADF80400D36869461046EE
:10CAC0009847657125717CBD0146204602F0C0FA89
:10CAD000A07A0028F7D02846E188A5DF012680B19A
:10CAE0001128F0D001F05AFA02460848084902B06D
:10CAF000401AC00806EB0040BDE8704005A100F0F8
:10CB0000B1BFA572E6727CBD90080200B4110200AC
:10CB1000B411020073645F626C655F676174746373
:10CB20005F65786368616E67655F6D74755F726578
:10CB3000717565737428292072657475726E6564E9
:10CB40002025732E000000007FB5054600294DD03A
:10CB5000002D4BD008780C46DE2847D1A888618884
:10CB6000884202D1204603F0FBF92888012825D00D
:10CB700002283BD011283AD0512837D135F8040F7C
:10CB80006188884232D1A978A81C02292ED1017A65
:10CB9000042903D0062901D0052927D100210091BD
:10CBA00002228DF8002001914FF4C072029103918E
:10CBB000ADF80420007A05280FD010E0297A20462D
:10CBC000012913D1A988428891420FD10121017214
:10CBD00004B0BDE8704003F0C3B9ADF80410288874
:10CBE0006946B0DF002801D0616888477FBDA8880A
:10CBF00061888842FAD14FF6FF7060807FBD00F1F6
:10CC000080400068002800D00120704708B500F17E
:10CC10008040002101600068009008BD70B50D4C97
:10CC20000125207808B185260EE00020A060606014
:10CC30002061E060084801F0FBF9064601F038F990
:10CC400008B901F0DFF9257001F0D4F900B1A57041
:10CC5000304670BD342800209DBF010038B5002546
:10CC60008DF800506846FEF7D5FC084CE068401E81
:10CC7000E060E06828B901F0BDF910B901F0E8F909
:10CC8000A5709DF80000FEF7E9FC38BD34280020AF
:10CC90000448017809B18520704701210170002006
:10CCA000704700003C230020F0B505460478154885
:10CCB00089B0164640F82420124A0869121DA2F1D4
:10CCC000080742F82400487F385520226846FCF7C0
:10CCD000F7FB04942878385C48B10EB10A4A00E0AA
:10CCE00000226946281D01F0EFFF09B0F0BD0EB12A
:10CCF000064A00E00022694605F10C0001F098FEAA
:10CD0000F3E700001C23002031FD0100D5FB0100EA
:10CD100030B40378054CE35C1BB130BC001D02F05D
:10CD200009B830BC0C3001F0EDBE00001823002023
:10CD300030B40378054CE35C1BB130BC001D02F03D
:10CD40007BB830BC0C3001F053BF0000182300202A
:10CD50000FB408B50399002904D004AA00926A46CA
:10CD600000F00FF801B05DF814FB10B582680446BE
:10CD7000002A05D0D4E90403216898470020A06068
:10CD800010BD2DE9FC4791460C00804676D014F882
:10CD9000011B39B125290ED04046FFF78DF82078C8
:10CDA0000028F4D198F80C00002867D04046BDE870
:10CDB000FC47FFF7DABF0020012221782B291BD086
:10CDC0002D2902D0302908D102E040F0010001E015
:10CDD00040F00200641C002AEFD100252A290ED061
:10CDE0002178A1F130020A2A11D205EB850201EB6C
:10CDF0004205641C303DF1E740F00400EAE7D9F851
:10CE000000100B1DC9F800300968641C0D4421781E
:10CE100000232E290BD114F8011FA1F130020A2A98
:10CE200005D203EB830201EB4203303BF3E76C29AD
:10CE30000DD068290BD0692921D00BDC252918D009
:10CE4000582931D063290ED0642915D117E014F880
:10CE5000011FECE7702969D0732932D075291BD0E6
:10CE6000782909D120E0D9F80000011DC9F8001087
:10CE700001784046FFF720F8641C90E76CE0D9F891
:10CE800000100A1DC9F800200968CDE900500A22E7
:10CE90004046FFF751FAEFE7D9F800100A1DC9F82C
:10CEA000002009680A2206E0D9F800100A1DC9F816
:10CEB000002009681022CDE90050404602F0EAFF48
:10CEC000DAE7D9F8001000270A1DC9F800200E681B
:10CED000C00705D112E04046761C7F1CFEF7ECFF30
:10CEE00031780029F7D104E0202140466D1EFEF77D
:10CEF000E3FFBD42C0D9002DF6D1BDE74EB13046AB
:10CF0000FCF702FB074604E0202140466D1EFEF7B9
:10CF1000D3FFBD4206D9002DF6D103E04046761C72
:10CF2000FEF7CAFF31780029F8D1A5E7D9F800004B
:10CF3000011DC9F80010056830214046FEF7BCFF0E
:10CF400078214046FEF7B8FF08200021CDE9000116
:10CF5000034610222946B0E7BDE8FC872DE9F843D7
:10CF6000884605002C482D499946A0EB01004FEA60
:10CF7000D0004FF00101164601EB004424D0286890
:10CF800000282CD0002E34D0696840464FF010079E
:10CF90000A68511E11EA080F11D101467243284652
:10CFA000FDF7E4FF00282ED028684B46324604697E
:10CFB00001B041462846A446BDE8F04360472046FC
:10CFC000174B18A2009722E00E2000902046144B29
:10CFD0001EA220A100F04DFD0E20BDE8F883082020
:10CFE000009020460E4B26A21AA100F042FD082018
:10CFF000F3E7092000902046094B24A215A100F078
:10D0000038FD0920E9E7064B214A2046009711A187
:10D0100000F02FFD1020E0E72C120200B4110200F6
:10D020008F0A0200616464725F69735F7061676593
:10D030005F616C69676E656428705F66732C207031
:10D040006167655F6164647229000000705F6673E8
:10D0500000000000257320636865636B20666169CA
:10D060006C656420696E20257328292077697468AF
:10D070002076616C756520307825782E00000000E0
:10D08000705F66732D3E705F617069006C656E0045
:10D090000010020038B503001148124D4FF00E0485
:10D0A000A0EB05004FEAD0004FF0010505EB004072
:10D0B00009D061B119600C6801B0A446BDE83040E8
:10D0C000114618466047084B08A2009402E0064B40
:10D0D00008A2009409A100F0CCFC0E2038BD00008D
:10D0E0002C120200B4110200440A0200705F667341
:10D0F00000000000705F617069000000257320630C
:10D100006865636B206661696C656420696E2025C3
:10D1100073282920776974682076616C75652030E2
:10D120007825782E000000002DE9F04128B1016833
:10D1300019B1C969BDE8F04108470D4D0D480024FB
:10D14000461B14270DE000BF04EB840005EB8000B4
:10D15000016829B1C969884710B10120BDE8F08193
:10D16000641CB6FBF7F0A042EED80020F6E7000002
:10D170000C240020202400202DE9F8439046894605
:10D180002F49304A0500A1EB02014FEAD1014FF0CF
:10D1900001021E464FF00E0002EB01441ED0B8F112
:10D1A000000F20D0286840B3002E30D04846FDF74D
:10D1B000D7FE1027002834D0324649462846FDF7CE
:10D1C000D5FE002832D0286833464246846801B034
:10D1D00049462846A446BDE8F043604700902046F3
:10D1E000194B1AA203E00090174B204619A21BA16D
:10D1F00000F03FFC0E20BDE8F88308200090204698
:10D20000114B21A215A100F034FC0820F3E70920FE
:10D21000009020460C4B1FA210A100F02AFC092010
:10D22000E9E72046084B1CA2009703E0064B204686
:10D230001FA2009709A100F01CFC1020DBE70000F2
:10D240002C120200B41102006A0A0200705F6673B9
:10D2500000000000705F6465737400002573206334
:10D260006865636B206661696C656420696E202562
:10D2700073282920776974682076616C7565203081
:10D280007825782E00000000705F66732D3E705F79
:10D29000617069006C656E00616464725F69735FE0
:10D2A000616C69676E6564333228737263290000AC
:10D2B000616464725F69735F77697468696E5F62E5
:10D2C0006F756E647328705F66732C207372632CA5
:10D2D000206C656E29000000044801214174007A29
:10D2E00008B100207047012070470000382A002054
:10D2F000012801D0032808D10449002201284A74DA
:10D3000000D00020087402F069B97047382A002064
:10D3100070B50246022801D0032A45D1234C207A59
:10D32000002841D0012833D0022831D120480023E1
:10D33000022A006802D0032A2AD11BE0E3600179A7
:10D3400011B1012924D10DE0D0E90565711B4FF41D
:10D350008056B14200D33146294481614569A942D2
:10D360000ED015E00169491C0161426991420FD15B
:10D37000237213E0E168491CE160082908D9E360E1
:10D380002372022A0AD00D21FEF7AAFE02F01CF930
:10D39000607C28B1BDE8704000F090BD0021F3E74B
:10D3A000BDE8704002F01AB970BD0000382A0020B4
:10D3B0009C2300202DE9F84F90468A463A493B4A83
:10D3C0000500A1EB02014FEAD1014FF00102DDF8A7
:10D3D00028901E464FF00E0002EB01441AD0B8F11F
:10D3E000000F1CD02868002822D00920002E29D048
:10D3F00069684968B6FBF1F201FB1261002926D089
:10D4000000902B4B20462BA235A100F032FB0920C7
:10D41000BDE8F88F00902046254B3CA203E0009029
:10D42000234B20463BA22EA100F023FB0E20EFE76A
:10D430000820009020461E4B38A229A100F019FBBD
:10D440000820E5E700902046194B37A2DCE750465C
:10D45000FDF786FD102798B14046FDF781FDA0B18C
:10D46000324651462846FDF781FD98B1CDF800902F
:10D47000286833464246C46851462846A047C7E755
:10D4800020460B4B29A2009708E02046084B2DA20E
:10D49000009703E0064B204633A2009710A100F04E
:10D4A000E8FA1020B4E700002C120200B4110200C8
:10D4B0007C0A020021286C656E202520705F66734F
:10D4C0002D3E705F666C6173685F696E666F2D3E9E
:10D4D00070726F6772616D5F756E6974290000000C
:10D4E000257320636865636B206661696C656420E1
:10D4F000696E202573282920776974682076616C0D
:10D50000756520307825782E00000000705F667306
:10D5100000000000705F737263000000705F66734C
:10D520002D3E705F617069006C656E0061646472AD
:10D530005F69735F616C69676E6564333228646527
:10D5400073742900616464725F69735F616C6967F9
:10D550006E65643332282875696E7433325F7429BE
:10D56000705F737263290000616464725F69735F46
:10D5700077697468696E5F626F756E647328705F37
:10D5800066732C20646573742C206C656E29000012
:10D5900070B541EA4201DDE904564FF0A04441EA8A
:10D5A000830141EA052104EB800041EA0641C0F80D
:10D5B000001770BD70B541EA4201DDE904564FF035
:10D5C000A04441EA830141EA052104EB800041EADD
:10D5D0000641C0F8001770BD70B541EA4201DDE9AF
:10D5E00004564FF0A04441EA830141EA052104EBCF
:10D5F000800041EA0641C0F8001770BD1CB500214B
:10D6000000910B4601220191FFF7C2FF1CBD1CB522
:10D6100000220B46009211460192FFF7CBFF1CBD82
:10D620001CB500220B46009211460192FFF7D4FF71
:10D630001CBD4FF0A04202EB80000321C0F8001790
:10D6400070471CB5002100910B4601220191114643
:10D65000FFF7B0FF1CBD1CB5002100910B46012255
:10D6600001911146FFF7B8FF1CBD4FF0A04202EB3D
:10D670008000D0F8002722F44032C0F80027D0F80C
:10D68000002742EA0141C0F80017704738B5094B3E
:10D6900044181B6800936B4608E000BF53F8201045
:10D6A000D1F8205520C2C1F82055401C8442F5D83D
:10D6B00038BD0000A00802004FF0A04201218140C7
:10D6C000C2F80C15704742094FF0000100D1491E05
:10D6D00000F01F00012282400A4201D00120704761
:10D6E000002070474FF0A04201218140C2F8081588
:10D6F00070470000034908B5084400210160006834
:10D70000009008BD0060004002494058012800D048
:10D7100000207047006000407047704708B5034A1A
:10D7200000924023024A00F005F808BD2DF80100E0
:10D730004C2A0020F0B595B01C4615460E4608460A
:10D740001A9F00F0C7FA182109A8FBF7D2FE0E971E
:10D75000CDE909540023082203A9304600F0CDFA90
:10D7600005980690BDF81000ADF81C00BDF8120039
:10D77000ADF81E0000208DF821000399082501F066
:10D780000300012802D0022816D02FE0C1F3C20006
:10D79000C1F383178C0A8DF82000BA002B460FA91D
:10D7A000304600F0AAFA09A8009006AB3A460FA945
:10D7B000204600F0EBF919E0C1F3C2008C0D8DF8A2
:10D7C0002000082C01D2274600E008272B463A46C5
:10D7D0000FA9304600F091FA3D44E41B09AB06AABC
:10D7E00039460FA800F04EF9002CEAD1304600F07F
:10D7F00075FA15B0F0BD00000A4A012902EBC0001D
:10D8000007D0022907D0032907D0042907D0002018
:10D8100070470220704704207047007970474079B4
:10D8200070470000B41102002DE9F04F8DB0FEF7F3
:10D830005BFB18B100200DB0BDE8F08F7D4C4FF0C0
:10D84000000BC4F818B4BFF34F8F7B49A068029057
:10D850000D68D846284004EB80000BE0D4F818048B
:10D8600070B961680298814201D8A160E2E728405E
:10D8700004EB80000C3002A9FEF7F6FD0028EDD184
:10D88000002009AA029901EA050304EB8303491C5D
:10D89000DB6842F82030401C02910228F2D309983C
:10D8A00000F00301022902D001294DD0A8E0810D2A
:10D8B00050228946B2EB905F00D850210E4666F3A5
:10D8C0009F50099008315D4800F0BBF9070077D000
:10D8D00000F000FA4346082209A9384600F015FA7C
:10D8E000029908F1080A2940681A8000001D864242
:10D8F00023D9504D0C3530B1C2B204EB8101301A3E
:10D9000090460C3104E02946F2B2002590462846A4
:10D91000C6B25346384600F0F8F90AEB08032DB1B9
:10D92000324629464FEA070000F0EFF9029909F163
:10D93000030001EB9000029039E004EB81015346B3
:10D94000324638460C31EFE7C0F38311062900D385
:10D95000062161F389100990C0F38310801C8100B7
:10D96000364800F06EF907004AD000F0B3F943469C
:10D97000082209A9384600F0C8F908F1080800266D
:10D980000FE00298434600EA0501401C04EB8101C8
:10D990000290042238460C3100F0B7F908F104086F
:10D9A000761C0998C0F38310B042EAD847B1D4F886
:10D9B0001054D4F8180478B1384600F08FF934E0E8
:10D9C0001EE0E8684079012804D12A6828463946D3
:10D9D00012689047E8680568002DF2D1384600F0DB
:10D9E0007DF98DF800B06846FDF714FED4F81804F0
:10D9F00008B90298A0609DF80000FDF72FFE14E022
:10DA0000D4F8104405E02168204689688847E0681A
:10DA10000468002CF7D10A480A49401AC0080221BC
:10DA200001EB004008A100F019F8FEF75DFA80F064
:10DA3000010000E74C2B0020B0230020541202000C
:10DA400034120200B41102004261636B656E6473AC
:10DA500020666C75736865640000000000231A4638
:10DA600001F064BF08B5012300926A4601F05EFF31
:10DA700008BD3EB5069C8DE81C0003236A4601F0F4
:10DA800055FF3EBD2DE9F0470E4680461C469246A6
:10DA9000082940D894F80C900020207319461046AD
:10DAA00001F066FC0025B54206D218F805201BA13E
:10DAB0002046FFF74DF903E01AA12046FFF748F989
:10DAC0006D1C082DEFD318A12046FFF741F9002562
:10DAD000B54212D218F805707E2F08D8FBF7ECFC7F
:10DAE0000068C05D10F03E0F01D03A4600E02E22E3
:10DAF0000EA12046FFF72CF903E00DA12046FFF709
:10DB000027F96D1C082DE3D301222146504601F070
:10DB1000E3FB84F80C90BDE8F0870000202530324C
:10DB200078000000202020007C0000002563000019
:10DB30002000000002480349401AC0087047000056
:10DB400054120200B411020013B56846FEF712FE2B
:10DB500008B100201CBD0248009950F831001CBDDE
:10DB6000B411020070B508480125D0F810440570C2
:10DB700007E0E06845712168204649688847E06809
:10DB80000468002CF5D170BD4C2B00202DE9FF4717
:10DB900081460C9D00200C462F7B28739846164624
:10DBA0002946184601F0E4FB072E42D2DFE806F0D2
:10DBB00004090F161F2A360049462846FFF7C8F801
:10DBC00037E0494628462268FFF7C2F831E0D4E939
:10DBD000002349462846FFF7BBF82AE0A0680090DA
:10DBE000D4E9002349462846FFF7B2F821E0D4E9FA
:10DBF0000201CDE90001D4E9002349462846FFF798
:10DC0000A7F816E004F1080007C88DE80700D4E97A
:10DC1000002349462846FFF79BF80AE004F1080074
:10DC20000FC88DE80F00D4E9002349462846FFF7C6
:10DC30008FF800222946404601F04EFB2F73BDE8C5
:10DC4000FF872DE9F041058A80462D1F4819C01C29
:10DC5000B0FBF5F0C6B24046FEF7B9FE041E19D07F
:10DC60000020207101206071E58000272546761E86
:10DC7000C4F800800BE04046FEF7A9FE60B1617970
:10DC8000491C6171286005467F1CC0F80080B742BE
:10DC9000F1D32046BDE8F081204600F002F80020D4
:10DCA000F8E72DE9F041457901466B1E002201E0BD
:10DCB0000968521C9A42FBD30F680146002605E012
:10DCC00038460C68FEF7A5FE2146761CAE42F7D317
:10DCD000BDE8F0810121001DFEF752BE10B50446DB
:10DCE0000121001DFEF76DFE10F0FF0F04D120464C
:10DCF000BDE81040FFF7D5BF10BD1CB50192012251
:10DD0000009201AAFEF7F6FC1CBD1CB50192002290
:10DD1000009201AAFEF7EEFC1CBD0000024A106052
:10DD2000101D0160704700002C760040030103487D
:10DD30001844C0F81425C0F8101570470070004052
:10DD400002494058002800D0012070470070004070
:10DD5000034908B50844002202600068009008BD2D
:10DD60000070004030B51548ADF5017D0078002801
:10DD700021D04FF4FA7500BFADF8005280A9684673
:10DD800061DF38B1052816D00DF5017DBDE83040C2
:10DD9000FDF75EB96C460A497DA800F0BBF806E0C5
:10DDA000D0E90021204690477DA800F0CAF87F986E
:10DDB0000028E1D0F4E70DF5017D30BD07240020F7
:10DDC000640B0200F8B5134C2078C0B10120A0709C
:10DDD00001F0F6FC112814D0022001F009FD002505
:10DDE0008DF800506846FDF715FC11DF06462570DA
:10DDF0009DF80000FDF732FC2EB13046F8BD08203A
:10DE0000F8BD0020F8BDA57001F044FD032001F02D
:10DE1000EFFCF6E7042400207CB5194C207808B10B
:10DE200008207CBD0120A070002001F0C9FC112851
:10DE300019D0002001F0DCFC124800260068019097
:10DE40008DF800606846FDF7E5FB0F4901A810DF7B
:10DE500005000AD0002020709DF80000FDF7FEFBB1
:10DE60002DB128467CBD00207CBD0120F3E7A670C3
:10DE7000667001F02FFD012001F0BAFCF3E700000D
:10DE800004240020F80A0200CDAF01000EB50749B6
:10DE9000684600F03FF805E0D0E900108847684682
:10DEA00000F04FF802980028F6D10EBD140B0200C6
:10DEB000014800787047000004240020054881785C
:10DEC00019B1007818B1FFF77DBF08207047FFF740
:10DED000A3BF0000042400201FB568464BDF30B10B
:10DEE000052814D004B0BDE81040FDF7B1B80849CA
:10DEF00001A800F00FF806E0D0E900210098904753
:10DF000001A800F01EF803980028E6D0F4E71FBD32
:10DF1000800B0200016009684160AFF3008010B51A
:10DF2000D0E900215368994201D1002104E0D1E9F0
:10DF30000034A34202D01946816010BD083141600F
:10DF4000F0E7816800290BD0026892680A44826079
:10DF500041684B689A4203D108314160FFF7DFBF47
:10DF6000704700000C4A10B502F594730EE0991A40
:10DF7000C91001EBD171491002EBC1010C68844258
:10DF800001D90B4602E005D201F108029A42EED314
:10DF9000002010BD486810BD1009020000B5FFF751
:10DFA000E1FF002800D1014800BD0000FC0802008C
:10DFB00008B5002242504058009008BD4058002843
:10DFC00000D00120704708B5002242504058009010
:10DFD00008BDD0F80403084000D001207047405825
:10DFE000002800D00120704708B500224250405858
:10DFF000009008BD02480068002800D0012070474A
:10E000000004014008480068012110F0010F06D10A
:10E010004FF0E020C02280F800248430C16703491B
:10E02000012008607047000000E100E01805004092
:10E030000649024600200B790BB1852070470A6023
:10E0400001220A7100224A71704700002423002037
:10E05000022010B54107C1F808034FF48270FEF7A3
:10E06000D5FD05490120086004480168C1F300415D
:10E070000029FAD110BD00000C0000401804004037
:10E08000002802D00149800108477047B10802000A
:10E0900010B500F005F80149084410BD00600040CB
:10E0A00010B5FDF75FFF602101EB8000C0B210BD2D
:10E0B00010B500F055F80149084410BD006000405B
:10E0C0002DE9F0410E46054601F08CF8002828465F
:10E0D00019D0FDF747FF083801F0F6F8032802D001
:10E0E00001280ED007E04FF0A040D0F81005E8401E
:10E0F00010F0010F05D003212846BDE8F041FFF7DD
:10E10000B4BA0221F8E701F079F8002822D02846B5
:10E11000FDF728FF04464FF4807000EB84000E4F9B
:10E1200081B207EB8400D0F8102542F00102C0F85C
:10E1300010250846FFF7DEFA002E0BD02846FDF723
:10E1400011FF064951F82000002803D00120A0400B
:10E15000C7F80403BDE8F0810060004048280020B3
:10E1600010B5044601F04AF840B12046FDF7FAFE2A
:10E170004FF4807101EB800080B210BD4FF4BE708F
:10E1800010BD00002DE9FC41DFF8B880044608EB23
:10E190000400002790F930001346C0170E46401CBB
:10E1A00001D008274AE0B0781946C0F34002204663
:10E1B000FDF7B4FE0546401C3FD0B078410717D4A8
:10E1C000C0070AD04FF0A04000EB8400D0F8001741
:10E1D00021F00201C0F8001707E000217378204603
:10E1E00000910A460191FFF7D3F9204600F0ECFFB9
:10E1F000B078800718D51448317800EB8500D0F846
:10E200001025124B1A40C0F810254FF4F8524FF465
:10E21000403302EA042203EA01410A43D0F8101510
:10E220000A43C0F8102509E008EB0500327810F821
:10E23000481F41EA8211017000E004273846BDE81A
:10E24000FC8100004828002000600040FFE0FCFF47
:10E2500070B5194D95F8580008B1082070BD00241C
:10E26000661E2046FFF72FFA10B1281980F830609B
:10E27000641CE4B2202CF4D300242046FDF740FEB9
:10E28000641CE4B20C2CF8D300200D4968650B4CDB
:10E29000C02081F8000401264020891FC1F8000138
:10E2A0004FF4BE70FFF726FAA004C4F8040385F803
:10E2B0005860002070BD0000482800200060004029
:10E2C00006E000E0034890F85800002800D0012044
:10E2D00070470000482800202DE9FC4104462A48E8
:10E2E0000F462044002590F93010491C01D0082524
:10E2F00044E0B978002651B3012200212046FDF701
:10E300000DFE411C21D0830020483A7818447978CA
:10E31000D0F81035DFF878C003EA0C03C0F81035E8
:10E32000D0F810354FF4F85C0CEA042C43EA0C03E7
:10E330004FF4403C0CEA02424FF4801C0CEA0151BD
:10E340000A431343C0F8103504E0042516E0FE210B
:10E3500080F830107A780120A0404FF0A041012AC7
:10E360000FD0C1F80C05012220460096002311466B
:10E370000196FFF70DF9204600F026FF2846BDE87C
:10E38000FC81C1F80805EEE7482800200060004045
:10E39000FFE0ECFF0649084490F930008100054891
:10E3A0000844D0F8101541F00301C0F8101570476B
:10E3B000482800200060004001B10121064A1044B5
:10E3C00090F93000820005481044D0F8102561F320
:10E3D0001452C0F810257047482800200060004003
:10E3E00010B5044600F00AFF70B12046FDF7BAFDF3
:10E3F000C0B2FDF785FD2046FDF7B4FD0C4A0021B3
:10E4000002EB8000C0F810150A49FF20214481F872
:10E410003000204600F0C0FE002807D02046FFF75D
:10E42000EDF82046BDE8104000F0C0BE10BD000071
:10E43000006000404828002010B500F005F80149B0
:10E44000084410BD0060004010B5FDF78BFD302181
:10E4500001EB8000C0B210BD0121B1EB507F01D1B2
:10E4600001207047002070472DE9F84F0427174E10
:10E4700000248246A1464FF0010800BF8DF80090AD
:10E480006846FDF7C7F808FA04F5354203D0204680
:10E49000FEF728F860B19DF80000FDF7DFF827B11E
:10E4A00004F10104AE43E4B2E8D13846BDE8F88F88
:10E4B000074908FA04F000274A68104348608AF8C0
:10E4C00000409DF80000FDF7C9F8EEE7FFFF0100EE
:10E4D000342300202DE9F04114460D00074612D0E8
:10E4E0008CB10026FEF73AF878B13846FDF7FAFF0E
:10E4F00068B1084800EBC700C0F81055C0F81445D3
:10E500003046BDE8F0810E20FBE70726F8E7082635
:10E51000F6E7000000F0014070B505460024FDF765
:10E52000EDFF68B12846FEF719F818B12846FDF747
:10E53000D9FF38B104490120A8400860204670BDC9
:10E540000724FBE70824F9E708F5014070B5054604
:10E550000024FDF7D3FF68B12846FDF7FFFF18B18F
:10E560002846FDF7BFFF38B104490120A8400860E4
:10E57000204670BD0724FBE70824F9E704F50140B5
:10E58000F8B504460026FDF7E9FF98B10A480125D1
:10E59000A540056000208DF800006846FDF73AF8B8
:10E5A00006484168A94341609DF80000FDF756F810
:10E5B0003046F8BD0726FBE708F50140342300206C
:10E5C00038B50D4600F020FF040014D000208DF86F
:10E5D00000006846FDF71EF8207928B19DF800007C
:10E5E000FDF73CF8112038BD0120256020719DF811
:10E5F0000000FDF733F8002038BD000070B50C4670
:10E6000026490A7C0AB1112070BD2279244D0AB135
:10E61000012A01D100222A6001EB4002137F1BB9BD
:10E6200011F82D3F5B1C0B70E1791177217A51773E
:10E6300021786278302301F0030103EA02121143CA
:10E64000A2784FF4E06303EA02221143E2784FF428
:10E65000805303EA0232114322794FF4E02303EAA4
:10E660000242114362794FF4801303EA02521143CC
:10E67000A2791B0103EA02620A4B114303EB001269
:10E68000C2F81815227AE179FFF750FB207908B11A
:10E69000012801D101202860002070BD1829002028
:10E6A00000750040007000402DE9F0411F4C054608
:10E6B00094F82C0010B10820BDE8F08144F8101B3C
:10E6C0001B4928780860091D68780860E878A077F9
:10E6D000012727770020207060776060154EE07773
:10E6E0006FF00040C6F808034FF48270FFF730FB6C
:10E6F000B015FFF72DFB4FF48A70FFF729FBA878C0
:10E700000D49400181F800048020C91FC1F80001B3
:10E710000220C6F80403A07F10B10120C6F804034C
:10E720000348F03807600020C6E7000018290020E1
:10E73000F07500400070004007E000E02DE9F04176
:10E740002C4D80460B46287C10B11120BDE8F0818D
:10E7500001242C74284E0322C6F8082321461846AB
:10E76000FFF7DCFA95F82D00012808D900270022D0
:10E77000F8B21146FFF7DAFA7F1C082FF7D305EB42
:10E780004800427F017F4046FFF7D0FA00273460FF
:10E790001948001D046042F210744FF4827840461C
:10E7A000FFF7CEFA20B90020FFF76AFC641EF6D10D
:10E7B0004FF48070FFF7CCFA4046FFF7C9FA95F89E
:10E7C0002D0001280AD9002405EB4400427F017F77
:10E7D000E0B2FFF7ABFA641C082CF5D395F82E00D5
:10E7E00008B1032000E00220C6F8040338462F7465
:10E7F000ACE70000182900200070004010B540224E
:10E8000002EB81020368D2B201249C5000684FF4ED
:10E81000A86202EB8101405810BD00680121C1606F
:10E8200070472DE9F04106460D464FF480340068EC
:10E830001746AC404BB14FF4A07101EB8501FFF7D7
:10E84000B7FB3068C0F8044301E0C0F80843306803
:10E8500000EB8500C0F84075BDE8F08102684FF418
:10E86000A07000EB810080B21044704702684FF442
:10E8700080308840C2F80803704770B505460C46E2
:10E880004FF4A07000EB840081B22868FFF790FB82
:10E8900029684FF48030A040C1F8040370BD000027
:10E8A0000268012111610079034A00EB400002EB8C
:10E8B0008000017270470000F428002001680122E6
:10E8C0000A600079034A00EB400002EB800002215D
:10E8D00001727047F4280020F0B40468049E40F2EE
:10E8E0000115D4F800728D40AF43C4F8007204687B
:10E8F000D4F800521D43C4F800523346F0BCFFF771
:10E9000090BF00002DE9F04104460E4600792C49E5
:10E9100000EB400001EB8007387A10B10820BDE819
:10E92000F0813A60706800254FF4A078786006E0C6
:10E9300008EB85012068FFF73BFB6D1CEDB26079A9
:10E94000A842F5D82068F17840F3073000284FEA54
:10E95000411104DB00F1E02080F8001405E000F034
:10E960000F0000F1E02080F8141D2068012140F321
:10E970000730002809DB00F01F0201FA02F240090B
:10E98000800000F1E020C0F8002120687278D0F803
:10E99000043562F30103C0F804352068B278D0F87A
:10E9A000083562F30103C0F8083520683278D0F8E2
:10E9B000103562F30303C0F8103539720020AEE75A
:10E9C000F428002010B50346006840F30731002901
:10E9D0000DDB01F01F02012090404909890001F17F
:10E9E000E021C1F88001BFF34F8FBFF36F8F19682B
:10E9F0004FF0FF30D1F800220024C1F8004219681E
:10EA0000C1F808031846FFF74BFF1879034900EBDC
:10EA1000400001EB8000047210BD0000F4280020CB
:10EA20000149024801F0EEB8A4280020002000406F
:10EA30002DE9F0410546007916460F4600EB4001EE
:10EA40002D4A01EBC00102EB810494F82A1011B1A8
:10EA50000820BDE8F081294951F820102868FFF707
:10EA6000AFFD08B11120F4E739462846FCF710FE47
:10EA700066603869206030004FF001062FD03F7F7C
:10EA80004FF48E712868FFF79EFA4FF4A271286840
:10EA9000FFF799FA28681A49C0F8041328684FEA62
:10EAA000471140F30730002804DB00F1E02080F834
:10EAB000001405E000F00F0000F1E02080F8141DC4
:10EAC000286840F30730002809DB00F01F0106FA30
:10EAD00001F14009800000F1E020C0F80011286831
