:020000040001F9
:10900000D8390020C5930100EF930100F1930100CE
:10901000F3930100F5930100F793010000000000B5
:10902000000000000000000000000000F9930100B3
:10903000FB93010000000000FD930100FF9301007D
:10904000459D0100019401005DA201000194010011
:109050000194010000000000A19C01004D9E010050
:1090600021A2010035A2010049A2010001940100E2
:109070000194010001940100019401000194010098
:10908000019401003D9E0100019401000194010042
:109090000194010001940100959F010001940100D9
:1090A0000194010001940100000000000000000094
:1090B0000194010001940100000000000000000084
:1090C00000000000000000000000000000000000A0
:1090D0000000000000000000000000000000000090
:1090E0000000000000000000000000000000000080
:1090F0000000000000000000000000000000000070
:10910000000000000000000000000000000000005F
:10911000000000000000000000000000000000004F
:10912000000000000000000000000000000000003F
:10913000000000000000000000000000000000002F
:10914000000000000000000000000000000000001F
:10915000000000000000000000000000000000000F
:1091600000000000000000000000000000000000FF
:1091700000000000000000000000000000000000EF
:1091800000000000000000000000000000000000DF
:1091900000000000000000000000000000000000CF
:1091A00000000000000000000000000000000000BF
:1091B00000000000000000000000000000000000AF
:1091C000000000000000000000000000000000009F
:1091D000000000000000000000000000000000008F
:1091E000000000000000000000000000000000007F
:1091F000000000000000000000000000000000006F
:10920000DFF810D000F000FD004800478DCE0100CF
:10921000AFF30080D839002030B450E8012F93B26A
:10922000C48923448489A34228BF1B1B0489A34209
:1092300002BFBFF32F8F002007E0C3EA020340E81C
:109240000134002CE9D14FF001000A6030BC7047B6
:1092500050E8012FC2EA024240E801210029F7D17B
:10926000704730B450E8022F1FFAA2F3C488A3421B
:1092700002BFBFF32F8F00200DE0C48923448489EF
:10928000A34228BF1B1BC2EA034340E80234002C60
:10929000E8D14FF001000A6030BC704750E8022F5F
:1092A000C2EA224240E802210029F7D17047034672
:1092B00053E8022FD988B2EB324F4FF0000017BFAE
:1092C00092B241EA014142EA014104E05A68B2EB3C
:1092D000324F08BF012043E80212002AE8D170474C
:1092E00030B4044654E8000F0D4644E80053002B08
:1092F000F8D1156030BC704730B4044654E8000F14
:1093000040EA010544E80053002BF7D1156030BC5A
:10931000704730B4044654E8000F00EA010544E801
:109320000053002BF7D1156030BC704730B40446B1
:1093300054E8000F80EA010544E80053002BF7D100
:10934000156030BC704730B4044654E8000F00EBA1
:10935000010544E80053002BF7D1156030BC70477D
:1093600030B4044654E8000FA0EB010544E8005374
:10937000002BF7D1156030BC704770B404464FF035
:10938000000054E8006F0D68AE4207BF44E80023B8
:10939000012044E800630E60002B1CBF0020F0E7B2
:1093A00070BC704730B4044654E8000F88422CBFAC
:1093B000451A054644E80053002BF5D1156030BC32
:1093C000704700000F4800680F4909680A280AD151
:1093D000002908D10D4802686FF070031A404FF061
:1093E00040031A4302600A4880470A480047FEE7E4
:1093F000FEE7FEE7FEE7FEE7FEE7FEE7FEE7FEE745
:10940000FEE700003001001034010010E40E0040BF
:10941000999F010001920100202A04DB203A00FA02
:1094200002F1002070479140C2F1200320FA03F3BB
:10943000194390407047202A04DB203A21FA02F0B9
:109440000021704721FA02F3D040C2F1200291407E
:109450000843194670470000004870471021020079
:1094600040EA01039B0703D009E008C9121F08C0A6
:10947000042AFAD203E011F8013B00F8013B521E26
:10948000F9D27047D2B201E000F8012B491EFBD29D
:1094900070470022F6E710B513460A4604461946FF
:1094A000FFF7F0FF204610BD421C10F8011B0029F9
:1094B000FBD1801A704730B504460020034600E017
:1094C0005B1C934203D2E05CCD5C401BF8D030BD06
:1094D000F0B480EA0102D40F4200B2EB410F02D295
:1094E0000246084611464A0042D0C30DDDB2C1F320
:1094F000C752AD1A202D35DAC1F3160141F400022E
:1095000004B15242C5F1200602FA06F12A41104484
:10951000B3EBD05F23D0C4B1012DA0EBC35009DC65
:10952000F0BC4FF0004202EAC352DBB200F500008B
:1095300000F0DFBA400000F1807000EBC350A0F1F2
:10954000807040EAD170490009E0490841EAC071E1
:10955000A0EBC35000F50000400800EBC350F0BC86
:1095600000F0BEBA6142012202EB4101001BF6E7A6
:10957000F0BC704781F00041AAE780F00040A7E707
:1095800080EA010210B502F00043400022D04A00F8
:109590001FD0010E01EB1261C0F35600C2F3560258
:1095A00040F4000042F40002A0FB022000047F39D6
:1095B000140400D0401C50EA124001D44000491E5F
:1095C000C2B20C0604EBD010401C4008802A02D026
:1095D00003E0002010BD20F00100002900DA002087
:1095E000184310BD30B480EA010202F0004530F0AB
:1095F000004221F0004013D090B1C30DD40DC2F34E
:109600001601C0F31600E41A41F4000140F4000210
:109610007D34914201D3641C00E04900002C02DA41
:1096200030BC002070474FF400000023914201D36A
:10963000891A034340084FEA4101F7D151B19142E1
:1096400002D14FF0004105E002D24FF0010101E0EC
:109650006FF0010103EBC450284430BC00F040BA65
:109660002DE9FE4F804681EA0300C00F0C460090B2
:1096700021F0004123F00045B8EB0200A94105D2DA
:109680004046214690461C460B46024623F00040C9
:10969000104347D0270DC7F30A00C3F30A510290C5
:1096A000401A019040286BDAC3F3130040F4801B8A
:1096B0000098924620B10023D2EB030A63EB0B0B18
:1096C00001985946C0F140025046FFF7A5FE0646F4
:1096D0000D4650465946019A00F0F0F910EB08008B
:1096E0006141002487EA115284EAE7731A4340D0AB
:1096F000009A62B3019A012A4FEA075215DC001B57
:1097000061EB02014FF0004202EA0752CDE900424C
:10971000001C41F5801132462B4600F027FA03B0B9
:10972000BDE8F08F40462146F9E7001B61EB0201DE
:10973000001C41F5801300185B412018A2F50017AA
:1097400047EB030140EAD570B6196D4111E06D0891
:109750004FEA360645EAC0754FEA0752001B61EB37
:109760000201001C41F5801149084FEA3000001940
:10977000514132462B4603B0BDE8F04F00F0E7B947
:109780000098012240000023D0EB020263EBE0735B
:10979000009821464FEAE074B8EB000061EB040149
:1097A000E9E783F000435BE781F0004158E72DE9EA
:1097B000FE4F81EA030404F0004421F000410094CC
:1097C0004FF0000B23F0004350EA01045ED052EA50
:1097D00003045BD0C3F30A54C1F30A552C44A4F22A
:1097E000F3340194A0FB0254C1F3130141F480113E
:1097F000C3F3130343F4801301FB024400FB034E45
:10980000840A970A44EA815447EA8357A4FB07680D
:1098100002958D0A05FB07854FEA932C04FB0C5437
:109820002705029D4FEA065847EA1637B5EB0805AB
:109830006EEB070C870E920E47EA811742EA8312FD
:10984000A7FB0201B6EB0B0164EB00042B0D43EA0E
:109850000C335E1844EB1C50DA465146E7FB02011C
:10986000C5F313044FEA0B3343EA14534FEA0432AF
:10987000019C43EA0603A4F10C040294009CCDE988
:1098800000B400F073F903B0BDE8F08F002001468A
:10989000F9E72DE9F04D81EA030404F0004B21F0D3
:1098A000004514464FF0000A23F0004150EA05023B
:1098B00020D054EA01021DD0C5F30A570246C5F371
:1098C0001303C1F31300C1F30A5640F4801543F4A7
:1098D0008013A7EB0608101BD64608F2FD3873EB81
:1098E000050002D308F1010801E092185B41B8F1CC
:1098F000000F03DA00200146BDE8F08D00204FF490
:109900008011064684460EE0171B73EB050705D34E
:10991000121B63EB050306434CEA010C49084FEAAE
:10992000300092185B4150EA0107EDD152EA030082
:1099300012D082EA040083EA0501084305D0101B17
:10994000AB4106D20122002306E000224FF0004383
:1099500002E06FF0010253101AEB06004CEB0851C5
:1099600010EB0A0041EB0B01BDE8F04D00F0EFB841
:1099700070B521F0004303430CD0C1F30A55002415
:10998000D5EB040564EB0403D617AD1AB34102DB33
:109990000020014670BD201841EB025170BD0EB58C
:1099A000C10F80EAE0700844CA07002140F2334347
:1099B0008DE80E000A460B4600F0D8F803B000BD53
:1099C0000EB540F2334102910021CDE900110A4663
:1099D0000B4600F0CBF803B000BD20F00040C10DF5
:1099E000C0F3160040F400007F2901DA0020704720
:1099F000962903DCC1F19601C8407047963988402A
:109A00007047C1F30A5210B5C1F3130140F2FF339E
:109A100041F480119A4201DA002010BD40F2334334
:109A20009A42A2F2334203DC5242FFF704FD10BD1A
:109A3000904010BD00F0004230F000400AD0C10D4F
:109A400001F56071C0F3160042EA0151C2084007F7
:109A50001143704700200146704701F0004330B4C5
:109A600021F0004150EA010206D00A0DA2F5607211
:109A7000C1F31301002A02DC30BC00207047440F00
:109A800044EAC104C100E01830BC00EBC25000F051
:109A900027B80000002801DBC0F10040002901DBED
:109AA000C1F1004181427047002801DBC0F1004054
:109AB000002901DBC1F1004188427047202A06DB02
:109AC000CB17203A41FA02F043EAE07306E041FA8C
:109AD00002F3D040C2F1200291400843194670477A
:109AE0000029A8BF7047401C490008BF20F00100B2
:109AF000704710B4B0FA80FC00FA0CF050EA010490
:109B000004BF10BC704749B1CCF1200421FA04F421
:109B100011FA0CF118BF012121430843A3EB0C01FA
:109B2000CB1D4FEA00614FEA102042BF002010BC5D
:109B3000704700EBC35010440029A4BF10BC70470D
:109B4000401C490008BF20F0010010BC704710B550
:109B5000141E73F1000408DA401C41F10001921850
:109B60005B411A4301D120F0010010BD2DE9F04DF9
:109B700092469B4611B1B1FA81F202E0B0FA80F24E
:109B800020329046FFF748FC04460F4640EA0A00A0
:109B900041EA0B0153465A46084313D0114653EA93
:109BA000010019D0C8F140025046FFF744FC0546B9
:109BB0000E46504659464246FFF72EFC084305D054
:109BC000012004E020463946BDE8F08D0020054321
:109BD00046EAE0762C4337430A986305E40AA0EB93
:109BE00008000022FD0A44EA47540A3002D500204A
:109BF0000146E9E7010510196941DDE90845001949
:109C00006941BDE8F04DA2E7064C074D06E0E0686B
:109C100040F0010394E8070098471034AC42F6D3B3
:109C2000FFF7F2FA98300200B830020070B58C18D5
:109C300010F8015B15F0070301D110F8013B2A1160
:109C400006D110F8012B03E010F8016B01F8016B4D
:109C50005B1EF9D12B0705D40023521E0DD401F849
:109C6000013BFAE710F8013BCB1A921C03E013F812
:109C7000015B01F8015B521EF9D5A142D8D3002047
:109C800070BD0000054A03214FF0A040C2F8001744
:109C90004FF48071C0F80C15704700002000005090
:109CA0002DE9F8430025DFF894804FF480760124F5
:109CB0002F460095304604F03DF838B1D8F804033B
:109CC000204203D0304604F02BF82543361D6400B3
:109CD0007F1CB6B2082FEDD34FF4BE74204604F0BB
:109CE00029F848B1204604F01BF845F000456A46C3
:109CF0000121002003F0EEFF15F0FF0F16D0012622
:109D000000242E420ED008EB8401D1F81005D1F8C2
:109D10001015C0F304200A4AC1F3014152F824206F
:109D200002B190477600641C082CEAD3002D02DAB9
:109D3000684606F00FF9BDE8F883000000600040B7
:109D4000E429002070B54FF48076304603F0B3FB71
:109D5000114CB50560B1304603F0B4FB0120C5F8E5
:109D60000803607920B901206071216800208847CC
:109D70004FF48276304603F09EFB00280AD030462E
:109D800003F0A0FB0220C5F808032168BDE870407D
:109D90000120084770BD00006023002010B586B088
:109DA000044614220F496846FFF75AFB01208DF83C
:109DB00009000C480C4A6946283800F0D3FC08B169
:109DC00000F0A8FB0748283800F090FCC4F16404B8
:109DD0000448A2B20021283800F0C6FB1128F7D0B1
:109DE00006B010BD481C02006D01020010B586B01F
:109DF000044614220F496846FFF732FB01208DF814
:109E000009000C480C4A69461C3800F0ABFC08B14C
:109E100000F080FB07481C3800F068FCC4F16404C3
:109E20000448A2B200211C3800F09EFB1128F7D094
:109E300006B010BD341C02006D0102000249024848
:109E4000091F096800680847A82300202DE9FE4380
:109E50004FF48278404604F0A5FA4C4F00254C4C54
:109E6000012600B3404604F0A5FA94F82E0010B184
:109E700094F82F10D1B18DF80050616801912189BB
:109E8000ADF80810E26832B1218B618362602181F4
:109E9000E56010B102E0257400E03E60216868468C
:109EA000884784F82F5094F82E0060B34FF48077E1
:109EB000384604F077FA30B3384604F07BFA628B08
:109EC00094F82D108A420AD9A2EB010080B2608377
:109ED0002289A2EB0000626802EB400005E007D196
:109EE000E06828B184F82F60658304F049FA04E043
:109EF0008A4202D184F82F606583404604F05AFA02
:109F00002248001D06604FF48877384604F04AFA6C
:109F100048B1384604F04EFA257402208DF800004E
:109F20002168684688474FF48A77384604F03AFA41
:109F300028B1384604F03EFA2574BDE8FE834FF0A0
:109F400000484FF48C7967691DE000BFB7FA87F0CD
:109F500028FA00F109EB80058F43284604F022FA25
:109F600088B1284604F026FAA5F58C75E8088DF826
:109F7000040045F38000401C8DF800608DF805005A
:109F8000216868468847002FE0D1D6E7007000407E
:109F9000902A002004F0AABA2DE9F041914E4FF02A
:109FA00080548F4DD4F8302130782B68511CC0F389
:109FB000031000D1DAB200274FF00108062A05D1BC
:109FC000B4F82413884AC1F304211160D9B20629D8
:109FD00004D1032802D186498448486703F042F837
:109FE00028B1D4F844028349C0F34230086029788C
:109FF00030780629C0F3031006D1032804D17E4827
:10A00000016821F08071016003F04AF840B14FF01F
:10A010008040C0F80C71C0F810717648001F0760CE
:10A0200029683078CAB2C0F30310062A05D1032884
:10A0300003D1704B032264331A60C9B206290ED1D2
:10A0400003280CD16D4A052111606C497831C1F8A3
:10A0500000806A4808300760111D3F20086003F047
:10A060003DF8E8B366480068664908606448001D2A
:10A070000068091D0860624808300068091D086012
:10A080005F480C300068091D08605D4810300068AA
:10A09000091D08605A4814300068091D08605848B6
:10A0A0001830006857492031086055481C30006856
:10A0B000091D0860524820300068091D086050489A
:10A0C00024300068091D08604D4828300068091DCB
:10A0D00008604B482C300068091D0860484800E0C3
:10A0E00018E0303000684749403108604448343057
:10A0F0000068091D0860424838300068091D086082
:10A100003F483C300068091D08603D484030006809
:10A11000091D0860D4F83001411C00D128783A4D5F
:10A12000062804D1D4F8580200F04F00286002F04D
:10A130007BFF30B135480168C90702D06FF00101DB
:10A140000160D4E94C10062907D1C21E022A04D9A5
:10A150002F4A136843F4806313600A2905D1020073
:10A1600003D02A6842F00F022A604FF0102206291D
:10A1700007D1C01E032804D9D2F808021D491C319A
:10A180000860D2F80002234B002803DBD2F8040257
:10A1900000280EDA012005F0FFF81520C2F80002B1
:10A1A00019680029FCD0C2F8040218680028FCD005
:10A1B0000BE092F80C02C0070CD0012005F0ECF87F
:10A1C000C2F80C7218680028FCD0002005F0E4F8F2
:10A1D00000F04AF8114910480860BDE8F08100001D
:10A1E000E00F00F0E80F00F0403501400DF0ADBA8F
:10A1F00000C007403C050040FCED00E01056004068
:10A200000404001020C50040E40E0040000400409B
:10A210003C17004000E401400090D0036C24002073
:10A2200004220249024802F0E7BB0000C02A0020D5
:10A230000080004004220249024802F0DDBB000019
:10A24000CC2A00200090004004220249024802F07B
:10A25000D3BB0000D82A002000A0004001480068BD
:10A260000047000068230020BFF34F8F05480168B6
:10A27000054A01F4E06111430160BFF34F8F00BF55
:10A28000FDE700000CED00E00400FA0502E008C85C
:10A29000121F08C1002AFAD170477047002001E060
:10A2A00001C1121F002AFBD17047000001212028A4
:10A2B00003DA81400548014003E0402802DA2038F3
:10A2C000814009B10120704700207047FC06FFBDA6
:10A2D0002DE9F843294E2A4F00246FF009086946FA
:10A2E000002004F09BFCBDF90000FFF758FB32464C
:10A2F0003B46FFF75CFA4246FFF73AFBFFF7ADFB40
:10A3000001462846FFF7E4F8641C0546642CE6DBAA
:10A310001C49FFF767F91C4CA168E1601B49FFF776
:10A320002FF9FFF75AFB81B26420B1FBF0F2D6B2ED
:10A33000B1FBF0F200FB1210267060700A21B0FB36
:10A34000F1F0FFF73DFB124A124BFFF730FA0746D8
:10A350000D463046FFF734FB0F4A104BFFF727FA44
:10A360003A462B46FFF77CF9FFF777FBA06042F2F5
:10A37000107004F0B5F9BDE8F8830000CDCCCCCC6A
:10A38000CCCC0C400000C842C822002000007A4417
:10A390007B14AE47E17A843F9A9999999999B93F8C
:10A3A00010B560B159B102780B785208B2EB530F77
:10A3B00005D10622401C491CFFF77DF808B100209A
:10A3C00010BD012010BD800701D000207047012082
:10A3D0007047C3688B4206D811440069491E814208
:10A3E00001D8012070470020704710B501220221DA
:10A3F000002000F0FBFF08B1072818D10722022136
:10A40000012000F0F3FF08B1072810D100210A2233
:10A41000084600F0EBFF08B1072808D111220121FE
:10A42000032000F0E3FF08B1072800D1002010BD91
:10A4300070B58CB015460E4600236C46C3F10F0173
:10A44000415CE1545B1C102BF8D30D2104F110008A
:10A45000FFF71FF80020C0F10F02315C2244401CBE
:10A4600011740328F7D3684646DF0020C0F10F01BE
:10A47000214491F820102954401C0328F6D30CB035
:10A4800070BD00000149C97800F0DABD3423002016
:10A4900010B572B603F098FE03F0F0FC0028FBD173
:10A4A00011481249401AC408012000EB044010A1D1
:10A4B00003F0FEFD11480068C00700D000BE022076
:10A4C00000EB04400EA103F0F3FDBFF34F8F0B48E8
:10A4D000E43801680E4A01F4E06111430160BFF302
:10A4E0004F8F00BFFDE7000088310200C830020036
:10A4F000466174616C206572726F7200F0ED00E06D
:10A5000053797374656D2072657365740000000083
:10A510000400FA050EB500210091CDE901106A464C
:10A5200044F20100FFF7B4FF0EBD000030B54268F1
:10A530000B4C1379E15C0120FF290ED0FE290DD0D0
:10A5400012684FF4A86505EB81015158054A52F88D
:10A550002320914202D1FF20E054002030BD0000B2
:10A56000E9230020A02C002003681B8B9BB25343DF
:10A570006422B3FBF2F292B2AFF3008070B50446EE
:10A58000006816460D4690F8212001EB450100EBCE
:10A590008101022A01D0082070BD4968B14205D16D
:10A5A000C16911B36068007988471EE02046FFF753
:10A5B000BDFF08B1112070BD61680D4AFE20097908
:10A5C000505432462946204605F004FE2068C069F2
:10A5D00058B16168064A02200979D21C02EB410198
:10A5E00048550221606804F0A9FB002070BD0000FE
:10A5F000E92300202DE9F84F07688946054601EB5D
:10A60000490897F821001E46924607EB880410B1CE
:10A610000820BDE8F88F4FF0000B3248C4F804B0B2
:10A62000A672006800900A22296802EB8800085C84
:10A6300040B100208DF801006946504604F0B4F89E
:10A64000B0B901E00120F5E747F828A04FF0010874
:10A650004FF0A04108FA0AF016B1C1F80C0501E06C
:10A66000C1F808050027E019083004F065F908B1C1
:10A670000420CEE77F1CFFB2022FF4D3207A04F02F
:10A68000B3F9607A04F0B0F9206836B104F038F814
:10A690000646206804F038F905E004F035F906466E
:10A6A000206804F02DF807464946686804F037FB37
:10A6B0000146207A324604F075F90221686804F0F8
:10A6C0002EFB0146607A3A4604F06CF984F80B8060
:10A6D0006968054A097902EB410202F809B00020D5
:10A6E00097E70000B01F0200EC2300202DE9F0479F
:10A6F0000025DFF86C9007680446A846626805EB01
:10A70000450007EB8006137909EB430202F8058048
:10A71000F17A71B10A22216802EB8000085CE0B195
:10A720000021306804F0B0F8306804F09BF8C6F8F7
:10A7300004806D1C022DE1D36168094AFF2009796C
:10A74000D21E5054606804F0C9FA606804F016FB29
:10A75000022087F82100BDE8F0870121E1E7000031
:10A76000EC2300202DE9F74F84B00E00044607D0FB
:10A77000256895F8210028B1082007B0BDE8F08FC2
:10A780000B20FAE702F0E0FE18B1852801D0042082
:10A79000F3E703F0FFFF20B903F0C2FF08B1032085
:10A7A000EBE75048DFF840A1002100784FF0010BA3
:10A7B000C0F30310032821D08AF800B0FF2285F8E7
:10A7C0002020002091464FF0FF3C00BF00EB4007E7
:10A7D00005EB8703401CD97283F8089083F8099031
:10A7E000C0B245F827C00228F0D305F1200004F0DC
:10A7F000A3F830B1204605F085FCC8E78AF80010C0
:10A80000DCE7002756F82720501C12D0F0193946F3
:10A81000037A2046FFF7EEFE5FEA000804D02046E8
:10A8200005F070FC4046A8E7002239462046FFF7B5
:10A83000A5FE7F1CFFB2022FE4D3002009224FF4B3
:10A840008053316901E04908401C994201D390428C
:10A85000F9D39AF8001009B100B90120234AD2E9CE
:10A860000112CDE901128DF804006068204A01A9A7
:10A8700000790290606804F0A5FA070004D0204631
:10A8800005F040FC384678E7616830690968D1F81E
:10A890001015CAB2010F0001FEF7CDFD0646A861F2
:10A8A000606804F01BFACDF800B05F46042332461E
:10A8B0000221606804F070FA0221606804F037FA3F
:10A8C0000698E86160680B49074A0079521C41F814
:10A8D00020406168097902F8019085F82170002014
:10A8E0004BE70000E80F00F0E8230020B01F020053
:10A8F00079010200AC2C0020F8B50446002617466A
:10A900000D468DF80060684600F042F8D4E9020177
:10A91000C04370EA010005D09DF8000000F05CF82B
:10A920000020F8BD01F03AFC40197141C4E9020170
:10A930009DF8000000F050F8A761206900B1256182
:10A940002146BDE8F840002006F0CEBC38B50446EC
:10A9500000208DF80000684600F01AF8D4E90201E2
:10A96000C04370EA01000DD04FF0FF30C4E902008F
:10A970009DF8000000F030F82146BDE83840012085
:10A9800006F0B2BC9DF8000000F026F8002038BDAB
:10A9900030B5EFF3108172B60D4A9468012324B1EB
:10A9A0000370002900D162B630BD93604FF0E02300
:10A9B000D3F88051074C25401560C3F88041D3F887
:10A9C000844154605A17C3F8842100220270E8E7DA
:10A9D000F42A0020FC06FFBD0B498A68002A11D02A
:10A9E00000280FD1EFF3108072B60B684FF0E02211
:10A9F000C2F800314B68C2F8043100228A60002896
:10AA000000D162B670470000F42A00202DE9F04121
:10AA1000064608680C46411C4FF0A0474FF0010560
:10AA200006D005FA00F1C7F80815206803F02DF9E3
:10AA30006068411C02D0002103F015F93168A0695B
:10AA4000C1F82405607D227D31681043C1F86C0592
:10AA5000D4E900123068C0F81425C0F80C15207D28
:10AA6000012815D1A068411C02D0002103F0FBF899
:10AA7000E068411C05D08540C7F80855E06803F040
:10AA800004F9D4E902123068C0F80825C0F810159E
:10AA9000BDE8F0812DE9F041064608680C46411CEE
:10AAA0004FF0A0474FF0010506D005FA00F1C7F8B6
:10AAB0000815206803F0F3F86068411C02D00021FB
:10AAC00003F0DAF83168A069C1F82405607D217DC2
:10AAD00032680843C2F86C05D4E900123068C0F847
:10AAE0000C15C0F81425207D012815D1A068411C43
:10AAF00002D0002103F0C0F8E068411C05D0854079
:10AB0000C7F80855E06803F0CAF8D4E902123068C3
:10AB1000C0F80825C0F81015BDE8F08102F07CB837
:10AB2000400C01D000207047012070472DE9F0470C
:10AB3000814605884A484FF000088AB001784246AD
:10AB4000284600F095FA99F80500400701D4002145
:10AB500076E005F58077B8B205AB0122072104F055
:10AB6000F3FD04003F48404A4FF00101A0EB020012
:10AB70004FEAD00001EB00460AD0204603F03EFD2C
:10AB8000024630462B46394903F09DFA214629E01A
:10AB9000284601F0E3FD4FF6FF71044688422BD1B1
:10ABA0008A46069801F044FD0446504510D00146FF
:10ABB000284601F0B3FD2846FFF764FCE0B92846BB
:10ABC00005F096FF2846FFF75DFC0028BFD013E094
:10ABD00004F022FF0446504508D1304624A103F07A
:10ABE00067FA0421284605F0B1FFB0E70146284680
:10ABF00001F094FD4FF00108B8B22246072104F09D
:10AC00001BFE07001BD0862F1ED003F0F7FC024668
:10AC100030462B462349009403F05DFA3946284616
:10AC200005F094FF0021484604F0CEFCB8F1000F77
:10AC300002D0204601F07CFD0AB0BDE8F08701217A
:10AC4000484604F0C1FCF7E7142217496846FEF7AE
:10AC500007FCADF80250684600F0ECFEEFE700009C
:10AC60003423002008310200C83002002C270200E3
:10AC7000436F756C64206E6F7420616C6C6F6361E0
:10AC80007465206E657720706565725F6964206603
:10AC90006F7220696E636F6D696E6720626F6E649C
:10ACA0002E00000048280200541D020018B504467A
:10ACB0000020ADF8000013466A46204600F006F872
:10ACC000002802D0BDF80000204418BD70B5E0B1E6
:10ACD000DAB1002402E0045D2C44A4B2651C8D426C
:10ACE00006D21688A642F6D8061976789E42F2D188
:10ACF0008C420AD2A31C005D9BB200B1401E00042E
:10AD0000000C02D01C188C4201D9002070BD1380A9
:10AD100070BD10B50288102A1BD0112A20D0262A17
:10AD20001DD1007A0C46012801D0022817D1A07845
:10AD30000521401CB0FBF1F201FB1201204600F09E
:10AD40001DF800280BD0A16B002908D0BDE81040E9
:10AD50000847C27B012A02D18088A1F8E80010BD13
:10AD60000C46002184F8F2108088B4F8E81088427C
:10AD7000F5D120790028F2D10121DFE72DE9F05F3C
:10AD8000044600780F4698B1A7700025C4F8EA5031
:10AD9000A4F8EE5084F8F050A079012608B1012FF4
:10ADA00009D0E07980B1012F05D0022F03D00BE04C
:10ADB0000820BDE8F09F616B21B184F8F1600820A4
:10ADC000884701E084F8F15004F1EB0100200A5CAF
:10ADD0000AB1304603E0401C0628F8D300204FF0AB
:10ADE00002084FF0030A4FF0040B012F06D0022F88
:10ADF0000CD0032F0FD0042F15D110E0A17929B169
:10AE000094F8241011B908B130460DE0E17911B180
:10AE100008B1404608E0207A08B1504604E0607A64
:10AE200008B1584600E02846A070616B41B1032884
:10AE300001D0042804D1607910B194F8F20098B1DF
:10AE400084F8F35004F13C0018210746FEF721FB7B
:10AE500084F83C6004F12C0004F0D4FE58B194F85E
:10AE60002C0084F8510008E084F8F45084F8F36072
:10AE700007208847E6E784F8516094F8240058B129
:10AE800004F1280004F0BEFE20B194F8280084F8F4
:10AE9000520001E084F8526084F85050A27804F126
:10AEA000EA0104F1D409052A4DD2DFE802F0650376
:10AEB0000F1B320084F83160C4F8E450C4E9101567
:10AEC00084F83C808020A4F848003EE084F831807B
:10AED00087F800A0228ABA81C4F8E4507960E1685A
:10AEE000B96032E06069B860208BB8813D4684F873
:10AEF0003C60204606F02EFC40B185F81480042109
:10AF0000204600F086FEF0B9052115E084F831A056
:10AF100017E0E069B860208CB8813D4684F83C6059
:10AF2000204606F017FC50B185F814800421204615
:10AF300000F06FFE38B9062184F8311001E084F882
:10AF400031B0C4F8E490A07878B13A4604F15400E6
:10AF5000D4F8E41072DF00287FF42BAF94F830109F
:10AF600094F8540073DF0028F6D1616B11B194F8A6
:10AF70003100884700201CE784F83150F5E70000D5
:10AF800010B5044600F090F8002805D02146BDE831
:10AF90001040024802F030B910BD000080260020A9
:10AFA00070B515460E46044606F0E0FB002809D0B1
:10AFB000054800EB8400C0692A463146BDE8704070
:10AFC00000F054BE70BD00007026002010B504468D
:10AFD00000F06AF8002805D02146BDE8104002487C
:10AFE00002F00AB910BD00008826002010B5044602
:10AFF00000F05AF8002805D02146BDE8104002486C
:10B0000002F0FAB810BD00008426002010B500241C
:10B0100000F04AF800B10124204610BD70B5054685
:10B02000002400F041F838B12946044802F0E4F861
:10B0300008B1022400E00124204670BD78260020DB
:10B0400070B505460C46084606F090FB60B12846F0
:10B0500000F02AF840B10548294600EB8400BDE81D
:10B0600070401C3002F0C8B8002070BD702600206F
:10B0700070B5054616460C46084606F077FB0028D4
:10B080000ED0284600F010F8002809D005483246B6
:10B0900000EB84002946BDE870401C3000F0B4BDD0
:10B0A00070BD000070260020142801D300207047D6
:10B0B0000146014802F0A0B87426002010B51A4CD1
:10B0C0000188606810290ED011292BD1401E6060C4
:10B0D00028D1FFF78AF9002824D02168002921D03F
:10B0E000BDE810400847D0B900210122084600F011
:10B0F0007DF908B107280FD107220221012000F0B5
:10B1000075F908B1072807D104220221002000F0B8
:10B110006DF920B1072802D0216801B18847606825
:10B12000401C606010BD0000E42200202DE9F047C3
:10B1300001883B4E40F2F3194FF6FF7510291BD0E2
:10B1400011293ED0122954D0502946D1C188F28904
:10B15000841D914241D1618902293ED186883046C1
:10B1600001F08EFB050038D004F10C0000F039F935
:10B17000A8B3294630464EE0C17B878804460129A2
:10B180002BD1A846284601F07BFB050017D02F8065
:10B1900000202872234843464A460168C5F80A1031
:10B1A0004068C5F80E0004F1100105F10A0001F035
:10B1B00058FC6872F08900280FD129462AE0042043
:10B1C00013E0808801F05CFB040006D06068FFF7A4
:10B1D000BDFB08B105F09EFC2580BDE8F087FFE7C8
:10B1E0006868FFF7B3FB0028F7D0BDE8F04705F02B
:10B1F00091BC87880646384601F042FB0400ECD03B
:10B200002B464A4606F1080104F10A0001F029FC28
:10B21000607221463846BDE8F04700F053BA00009E
:10B2200054260020EC2200202DE9F0470288868871
:10B23000DFF8F8A098B0102A0DD0112A46D00AF1F4
:10B240001003192A61D01A2A6CD1007A0409042C3F
:10B2500043D3012242E0354C083CA068C0430B9028
:10B2600061680BA801F0E9FF0B990CA800F00AFA3D
:10B270002C220CA96846FEF7F3F80027E8460FE0F9
:10B2800008EB47005FF00005B0F8049004EB850080
:10B290004946001D01F070FF6D1C1E2DF6D37F1C6A
:10B2A0000098B842ECD8142E05D318B00420BDE89D
:10B2B000F047FFF72FB93146504601F0A8FF18B00C
:10B2C0003146201DBDE8F04701F0A1BF18B031465E
:10B2D0005046BDE8F04701F04FBF00223146184606
:10B2E00000F092FC032C01D3012200E000220F4861
:10B2F00031460C3000F088FC022C01D3012200E022
:10B3000000220A483146083007E0017A002909D1B5
:10B31000407A3146C0F3C002184618B0BDE8F04785
:10B3200000F072BC18B0BDE8F0870000782600205D
:10B3300070B51F4E044686B07078002836D020883D
:10B34000A588102811D031782846FFF779FE00280B
:10B350002CD1204601F0DEF8204605F033FD06B082
:10B360002046BDE8704000F09FBD00208DF8000031
:10B37000142101A8FEF78DF801208DF804004FF686
:10B38000FF70ADF8080004F108000390ADF8065016
:10B39000CDF810D001A800F037FB9DF800203178DF
:10B3A0002846FFF765FE9DF80000D0E706B070BDA7
:10B3B0002423002030B40288502A10D1034630F8EC
:10B3C000062F4C88A2420AD14289012A07D1CC69B2
:10B3D000002C04D0027B9888A44630BC604730BC67
:10B3E0007047007800F001007047000070B500233E
:10B3F000042810D20D4D00EB4004012A02D101298E
:10B400000CD00022094E00EB4000304461B101290C
:10B4100006D0022906D00723184670BD0E30C2B2EE
:10B420002A55F9E74270F7E78270F5E71426002005
:10B430002DE9F84F0546861C00208DF80000914646
:10B440000F464FF0010A6846FFF7A2FA1B4C04F2C0
:10B450001C4860683860D4E90101194F401A396806
:10B46000081A0EE00121404601F0E1FE01F0BCFCAB
:10B470000146404601F0DBFED4E90101401A39687B
:10B48000081A401C8642EDD8B9F1000F03D0052000
:10B4900065F3891002E0062065F39F5061683A6801
:10B4A000114004EB8101C8606068304460609DF821
:10B4B0000000FFF791FA5046BDE8F88FB82D002044
:10B4C0001424002070B50D4604460A2902D10D212E
:10B4D000FFF7F8FFA0682268411CA1601554D4E969
:10B4E0000101814204D32046BDE8704002F079B8E2
:10B4F00070BD0000044881684068814201D101208C
:10B500007047002070470000B82D00201CB504468D
:10B5100001F024F900236A46092104F0E9F905281D
:10B5200005D10348012241792046FFF7A1FD1CBD4A
:10B53000F42200201CB504460020009042F6A6200C
:10B54000ADF8000001208DF80200084801AA694604
:10B55000006801902046A0DF002805D104480122A0
:10B5600081792046FFF784FD1CBD0000641C0200A9
:10B57000F422002005494FF0FF32082841F820202E
:10B5800002D3084480F8482070470000E4290020D6
:10B59000F0B54FF0FF3512B10023082601E0082373
:10B5A0000C260C4C05E000BF54F823707F1C04D01F
:10B5B0005B1CB342F8D32846F0BD26185DB286F86E
:10B5C000305044F82310002AF5D1E11881F84800E2
:10B5D000F1E70000E42900200249084490F9300016
:10B5E00070470000E429002070B504464FF6FF754F
:10B5F0000A462846AC4209D14FF4807421461046D1
:10B6000001F0D5FD80B2A0420BD070BDFF2CFCD85C
:10B610002146104601F0BBFD90F0010F01D02046FD
:10B6200070BD284670BD000070B5084C050009D0FB
:10B6300010342168002907D008682060496828462E
:10B640008847F6E70834F4E770BD0000D0290020F1
:10B65000054A012120B1012805D19170FFF7E4BF0F
:10B6600051700020FAE77047D029002010B5D0E9CA
:10B670000234D1E90220D11AA04101D3012010BD2A
:10B68000002010BD73B58CB00646002000900D98C8
:10B6900080B100246D4621460DA801F0ADFD30B10A
:10B6A000009805EB400084800098401C0090641CCA
:10B6B000142CF0D32C2269463046FDF7D1FE0EB093
:10B6C00070BD000038B54A7A0F4B62B100220A7291
:10B6D0005969002906D001228DF80020ADF802003A
:10B6E0006846884738BD0A7A62B19B684C68024652
:10B6F00019462046FFF700F90028F3D0BDE838408E
:10B7000005F008BA5B68F1E754260020F0B585B073
:10B7100016460F4604461D4614220B496846FDF79F
:10B720009FFE0A488DF80870ADF80240ADF80A6037
:10B730008DF80C50017800222046FFF799FC6846EE
:10B7400000F078F905B0F0BD681D02003423002038
:10B7500070B504460948012101F084FDBFF35F8FF5
:10B760000025002808D1204601F0B2FA002803D1B4
:10B77000BFF35F8F0148056070BD0000002300200B
:10B780002DE9FF410C4620B14FF4064004B0BDE85E
:10B79000F0812079002748F2096538B141F61D563D
:10B7A00001281BD0022826D0681DEFE70220207157
:10B7B00002970397E0680190694601A804F0FAFE39
:10B7C00050B102988188E18000882081BDF8001086
:10B7D000029804F06DFFD9E72846D7E70A4B6A467E
:10B7E0000021A01D04F09EFE38B1074918398F6171
:10B7F000CF61A842CAD13046C8E703488188019882
:10B8000004F056FFF5E70000C823002010B5002122
:10B81000024801F027FD80F3100010BDD431002054
:10B820000068D0F80405704790F90400002809DB8F
:10B8300000F01F02012191404009800000F1E0204A
:10B84000C0F80012704713460A460021FFF75EBF9A
:10B8500010B503780022072B06D2DFE803F00504B9
:10B860000610202930000A7010BD01230B700389D7
:10B870008B818388CB81C06888600A7410BD0222E6
:10B880000A7002898A818288CA81C2688A60807D42
:10B89000062802D00020087410BD0120FBE7032217
:10B8A0000A70C2888A810289CA81C068886010BD16
:10B8B00004230B70C0888881CA818A6010BD05206E
:10B8C000087010BD70B5064D0646002455F82410CA
:10B8D00009B130468847641C042CF7D370BD0000C2
:10B8E0001C2B002030B50446006887B00D468068E8
:10B8F00000281FD018216846FDF7CBFD0195A068F0
:10B900000590207910B1012810D107E001208DF8B1
:10B91000000020690290E068039005E002208DF8A5
:10B920000000E0680003029060690490206881686C
:10B930006846884707B030BDF0B585B017460C00A3
:10B9400005463AD0112C38D0082C36D01C481D4959
:10B95000401AC6080D2C11D0204602F04FFE0246B8
:10B96000012000EB06402B46174902F0ACFB2A46AB
:10B970000821684601F026FB02941BE0022000EB40
:10B9800006402A46114902F097FB2A4604216846E0
:10B9900001F018FB27B13878C00701D0012000E082
:10B9A00002208DF8080000208DF80C0041F20110F3
:10B9B000ADF80A00684600F04BF805B0F0BD000095
:10B9C00010310200C8300200142A020004290200CB
:10B9D00010B50446408800F0C1FEA080024801680E
:10B9E0002046BDE810400847FC22002010B5044660
:10B9F000808800F0FDFD6080024801682046BDE8B7
:10BA0000104008470C2300202DE9F0410746002490
:10BA1000064E074D05E000BF56F82410384688470B
:10BA2000641C28798442F7DBBDE8F081842900207A
:10BA30002423002010B50446408800F08FFEA0802B
:10BA4000024801682046BDE810400847281D020052
:10BA50000149096808470000A41D020038B50446E2
:10BA60000F480078B0B1A4F57F40FF380FD068468A
:10BA700004F01CFC88B10521017001210171C48012
:10BA8000684604F021FC04F0D3FC002038BD48F2E5
:10BA9000036038BD48F2016038BD48F2076038BD28
:10BAA000D023002038B5040014D0694604F082FD8C
:10BAB000B0B1BDF8000000EB80010B4800EB810045
:10BAC000C16851B1A17A41B1C168491EC16000206D
:10BAD000A07238BD48F2046038BD48F2056038BD38
:10BAE00048F2096038BD0000B82B00201FB501A93D
:10BAF000684604F017FD04B010BD07B513460A46AA
:10BB00006946002004F00EFD0EBD07B513460A4637
:10BB10000021684604F006FD0EBD20B119B1006891
:10BB200008600020704748F204607047F8B50D4681
:10BB3000040018D0BDB1694604F03CFDB0B1BDF8B9
:10BB400000000C4900EB800001EB800001210C306B
:10BB5000666801F06CFB2E6060680C306860012044
:10BB6000A0720020F8BD48F20460F8BD48F20960F8
:10BB7000F8BD0000B82B002018B10323002205F007
:10BB800009BF48F2046070470223002205F002BF9B
:10BB900010B51B4CD4E90201FDF786FF20D2E078F6
:10BBA0002179884226D803D22071A0F1010001E05A
:10BBB00000F10100E070E078F0B1632801D9622063
:10BBC000E070C0B2A070C0F1640082B200210D48E4
:10BBD000FEF7CAFCBDE8104042F2107002F080BDD2
:10BBE000D4E90201FDF756FFE5D2E07821798842D9
:10BBF000DAD8DDD22071DBE74FF00200E0E7000089
:10BC0000C8220020181C02000AB101F000BB01F09C
:10BC1000B3BA70B50D460446B0F8D810D0F8D400C9
:10BC20000122FFF743F800B1057004F13C0204F172
:10BC3000D40104F1540072DF70BD000070B51346EA
:10BC400000220546112900D10122074C33B1217988
:10BC5000FFF70EFA00226178284600E06178BDE81F
:10BC60007040FFF705BA00003C230020F7B51746E7
:10BC70000E0011D00098002560B1002421466846CE
:10BC800001F0BAFA18B1A0B23946B0476D1C641C75
:10BC9000142CF3D32846FEBD0020FEBD406804F0FE
:10BCA00025BB704770B510B14FF4064070BD1C4CF9
:10BCB0000025207B08B1257301E000F0A5F820786D
:10BCC00008282AD2DFE800F02904080C10291422E1
:10BCD000BDE8704000F026B8BDE8704000F082B8C2
:10BCE000BDE8704000F064B8BDE8704000F040B8B6
:10BCF0000620207060880A4900EB8000283901EB9B
:10BD000080004068BDE8704003F0FEBB0720207053
:10BD10006560BDE8704003F005BC48F20E6070BD80
:10BD2000E02B00201149F0B48A1C00200346A1F149
:10BD300028050C18A67A4EB1A37200EB800405EB1F
:10BD40008404E66816B9247C012C0AD0401C80B219
:10BD50000228EED30B704B804B60F0BC41F61D50B7
:10BD600070471080F0BC00F03DB80000E02B0020D0
:10BD70000C48418801EB8102A0F1280101EB82010E
:10BD8000CA6852B10521017007480221818001680B
:10BD900000230122054801F01DBD042202704968FC
:10BDA000F6E70000E02B0020D823002084240020A8
:10BDB00038B50A49084803240B684268898803EBB0
:10BDC000810153880470DB1C00201B0400909B0B36
:10BDD000034801F009FE38BDE02B0020D8230020E5
:10BDE00084240020074910B54888091D04F032FC5E
:10BDF00018B1BDE81040FFF7DBBFBDE81040FFF70A
:10BE0000B7BF0000E02B002070B5194C012120784D
:10BE100008281AD2DFE800F00419191C252929186E
:10BE20002089134A401C2081002060802073283A1A
:10BE300000EB800312F8233043B100232518401C87
:10BE400080B2AB720228F3D3217070BD0123F5E7F5
:10BE50006068084940888A88C01C10448880022095
:10BE600004E000F009F8062000E00720207070BD13
:10BE7000E02B0020D82300200A490948498802689D
:10BE800001EB81030749283901EB83014B6803600B
:10BE90004A6082880A8102228280002008747047EA
:10BEA000D8230020E02B00202DE9F04306468088AF
:10BEB0003288DFF85C8185B00746502A37D010DC25
:10BEC0005449554B06F10A05A1EB03014FEAD10194
:10BED0004FF0020303EB0144352A3AD0362A07D14A
:10BEE00068E0522A02D0542AF9D102E000F094FE10
:10BEF00082E0142249496846FDF7B2FAADF80270B3
:10BF0000384600F02BFCADF8040000F061F9002287
:10BF1000444698F804103846FFF7AAF80022E17862
:10BF20003846FFF7A5F86846FFF752FD64E0307B1E
:10BF3000012861D1B07A01285ED13089A0F5245161
:10BF4000023959D10121384600F0BAFE05F0EAFB6A
:10BF500052E098F80610FFF773F800284CD0002242
:10BF600098F806103846FFF783F8F288B2F5857F17
:10BF700017D012B120462AA10BE02A88012A03D04B
:10BF8000204636A102F098F86A88012A04D020469B
:10BF900041A102F091F804E0A98800223846A1DF0F
:10BFA00008B1002125E0012298F807103846FFF774
:10BFB0005FF821E04FF0000998F80710FFF740F80C
:10BFC000D0B1002298F807103846FFF751F8F288F0
:10BFD00012B1204612A104E0AA88012A04D020460A
:10BFE0002DA102F069F803E0A87900B10120814693
:10BFF0004946384605F042F90022364998F80200D1
:10C00000FEF7CEFF05B0BDE8F04304F0D3BD00005D
:10C01000F4220020C8300200C8300200BC1C02001C
:10C02000556E65787065637465642047415454208B
:10C03000737461747573207768696C6520676574C3
:10C0400074696E6720434152206368617220766193
:10C050006C75653A20307825780000004D756C7459
:10C0600069706C652028256429204341522063684B
:10C070006172616374657269737469637320666F5A
:10C08000756E642C207573696E6720746865206610
:10C09000697273742E000000556E65787065637464
:10C0A0006564204341522063686172616374657204
:10C0B00069737469632076616C7565206C656E6761
:10C0C000746820282564292C2073746F72652030D1
:10C0D0002E0000001DAB010070B50446007800285A
:10C0E00014D1608800F098FD6588284600F076F944
:10C0F00028B107480122C1782846FEF7B9FF6088B9
:10C10000FFF704FABDE8704005F00CBB70BD0000FD
:10C11000F42200207CB504460078092837D1607AE3
:10C1200058BB207A1C4E4FF6FF75012811D0072806
:10C1300002D008282BD121E0A08800F059FA04464B
:10C14000A84224D0012100F0BBFD2046FFF7DEF914
:10C150001DE0A0886A46012103F0ACFA68B9019895
:10C16000007850B1A08800F043FAA8420FD0012215
:10C17000F178FEF77DFF04F01DFD08E0F06801286E
:10C1800005D1BFF35F8F044900200C310860BDE882
:10C190007C4005F0C7BA0000F422002010B50B481F
:10C1A000FFF73EFB094A083AD2E90434C018D2E945
:10C1B000063244F10001C31A71EB020204D24FF0BF
:10C1C0008072801841F1000110BD0000882300201A
:10C1D0001CB5054AD2E90212CDE9001200226946D7
:10C1E00003F0C0FB1CBD0000D41C02002DE9FC4183
:10C1F000804600F0B3FA002403250127A0F57F4113
:10C200002646FF3908D06A46082103F053FA18B9C8
:10C210000198841D8688056832462B462146404693
:10C22000B1DF042804D0082804D00B2808D002E08D
:10C23000112000E00020002F00D10B20BDE8FC8180
:10C240000027A80701D50125E6E7344303D00024E1
:10C2500026460325E0E7064806494246401AC0083C
:10C26000012101EB0040044901F026FFE5E7000051
:10C27000D0300200C83002006C2302002DE9FF47D5
:10C28000824600F06BFAA0F57F418146FF3916D057
:10C290003B493C4A0127891AC90807EB014600BF00
:10C2A0003A467F1C4FF00008BFB202AB0821484657
:10C2B00003F04AFA040007D0072C5ED05EE043F298
:10C2C000020004B0BDE8F087039D03232A1DA91DC9
:10C2D00050462B60B2DF040004D00C2C37D0052C64
:10C2E00038D038E06A460821484603F0E3F958B1EF
:10C2F000052814D002F082F902463046534622A1A6
:10C3000001F0E1FE0320DCE70198AA8880888242E0
:10C3100005D10199A81D891DFDF7CDF830B14A4618
:10C320000821104603F088FA044627E00821484611
:10C3300003F078FA48B102F061F9034630464A4604
:10C340001F4901F0C0FE032418E00B2416E04FF053
:10C35000010800E000240821484603F063FA40B1D8
:10C3600002F04CF9034630464A46154901F0ABFE4F
:10C370000324B8F1000F93D100E00C242046A0E77D
:10C38000D0300200C83002007064625F7065657270
:10C390005F646174615F7074725F676574282920DF
:10C3A00072657475726E656420257320666F7220E5
:10C3B000636F6E6E5F68616E646C653A2025640021
:10C3C000EC22020004488088A0F57F41FF3901D0AB
:10C3D00004F0FABB70470000042300200EB502A948
:10C3E000019100F0BBF96A46012103F063F908B13D
:10C3F00000200EBD019800780EBD00002DE9F0412F
:10C4000007464FF6FF761048B3DF78B102F0F6F832
:10C4100002460E480E49401AC008012101EB0040B7
:10C420000C4901F049FE0320BDE8F081064C43F2BF
:10C430000305A41E324661883846AFDFA842F3D117
:10C440006088401C6080F5E706230020D0300200A1
:10C45000C8300200A0220200428800EB82020C32A7
:10C460008A4201D9022070478188A1F57F42FF3AB4
:10C4700006D0018821B18068401C01D0002070479F
:10C4800001207047884204D20068401C01D001207E
:10C490007047002070473EB5027802230C46B3EB8C
:10C4A000520F17D1B0F80110ADF80010C1788DF817
:10C4B00002108188ADF8041080798DF8060002AA78
:10C4C00001A92046FDF7B4FF032202A96846FCF744
:10C4D000F2FF08B100203EBD01203EBD70B50D4603
:10C4E0000446142810D2FEF7DFFD68B1084904EBBA
:10C4F000840001EB4000D0F802102960C188A980B7
:10C50000007AA871002070BD43F2020070BD0000E7
:10C51000EC26002070B5018890B0102961D1011D72
:10C5200028226846FCF79CFF9DF804004FF6FF7632
:10C5300003213446B1EB500F2BD003F0D1F99DF815
:10C5400004006D4640080ED001280CD0022820D1EE
:10C5500018E00C99281D1131FDF722FF18B100BF1A
:10C56000BDF8284015E00BAA0AA9072003F08CF9B2
:10C570000028EED10DE00C99281D491CFFF78BFF18
:10C580000028EDD10BAA0AA9072003F07DF90028A5
:10C59000F1D1BDF80000B44200EB8001124820F850
:10C5A000114000EB41000199C0F80210BDF80810DD
:10C5B000C1809DF80A10017213D0BDF80000ADF8DB
:10C5C0002A000020ADF82C40084E8DF828000AAD56
:10C5D000044600BF56F8241028468847641C022CE5
:10C5E000F8D310B070BD0000EC260020E81C02005B
:10C5F0002DE9F0414FF6FF760546B04213D00B4FC0
:10C60000002400BF04EB840037F81000A84206D1D4
:10C610002046FEF749FD10B12046BDE8F081641CBC
:10C62000A4B2142CEED33046F7E70000EC2600202D
:10C630003EB50C46054603F053F90BE0BDF800008B
:10C64000A04207D02846029900F00EF810B1BDF8BC
:10C6500000003EBD01AA6946072003F015F9002835
:10C66000ECD14FF6FF703EBD2DE9F0410C4605467A
:10C6700000F1110701F111061022491C401CFCF7C2
:10C680001AFF48B9681C00F014FA28B1601C00F0C9
:10C6900010FA08B1012400E0002431463846FDF7C5
:10C6A0007FFE3B780222B2EB530F0CD00321B1EB9B
:10C6B000530F08D03378B2EB530F04D0B1EB530FC4
:10C6C00001D0012100E00021084201D18C4302D0B9
:10C6D0000120BDE8F0810020FBE7018811B9421874
:10C6E00092780AB101207047491C0829F7D300202D
:10C6F000704710B50C460346FFF7EFFF00280AD03D
:10C7000018882188884205D10822A11C981CFCF7B2
:10C71000D2FE08B1002010BD012010BD142804D2A3
:10C72000024A00EB800022F810107047EC2600202F
:10C7300070B50546FFF75CFF0446284602F0BEFFD1
:10C74000002808D1142C06D2034B04EB84024FF6C8
:10C75000FF7123F8121070BDEC26002010B50446BE
:10C76000142808D2FEF7A0FC28B1044904EB840089
:10C7700031F8100010BD4FF6FF7010BDEC26002000
:10C780003EB5044603F0ACF80EE001992046463170
:10C79000FFF7AFFF28B9019920462A31FFF7A9FF1B
:10C7A00010B1BDF808003EBD6A4602A9072003F09B
:10C7B0006BF80028E9D14FF6FF703EBD2DE9F0413E
:10C7C0002C4D002420B16C604FF40640BDE8F08190
:10C7D0000879012250B1284B01280BD0254A0226A6
:10C7E0000832022821D0032829D12CE00A7102F056
:10C7F00099FE22E05FF0000000EB800113F82110A9
:10C80000022908D0401C80B20228F5D32A706C603F
:10C8100041F61D50DAE700EB800003F8204003EBFF
:10C820008000406802F070FE07E00C71968011688D
:10C8300000230122114800F0CDFF0028C6D06C6013
:10C8400048F20D60C2E70C480C712830418810682E
:10C8500001EB810703EB8701D1F804C0C2F800C0E7
:10C860004860B2F804C0A1F808C0968003F82740D9
:10C87000D8E70000D0230020B82B0020842400201B
:10C880000146034802888A4200D000207047000019
:10C89000402600202DE9FC5F0E008346DDE90C47B1
:10C8A000C6F1000098469246814600D4084601250C
:10C8B00003E000BF90FBFAF06D1C5045FADAA84582
:10C8C00000D9454624B1002E01DB780700D5641E4F
:10C8D000B80702D5B8F1000F0AD0F80708D13CB16B
:10C8E000A54205D220215846641EFEF7EBFDF6E76F
:10C8F000002E02DA4E462D2102E0780703D52B21C7
:10C900005846FEF7DFFD07F0030002280BD1B8F10F
:10C91000000F08D13CB1A54205D230215846641E13
:10C92000FEF7D0FDF6E7CDE90047434652463146D3
:10C93000584604F09DFEBDE8FC9F000070B50D4612
:10C94000044600684FF4887101F07EFE4FF4907148
:10C95000206801F079FE4FF49271206801F074FEB6
:10C960004FF4A271206801F06FFE4FF4AC712068A3
:10C9700001F06AFE20681249C0F8041320686907B4
:10C9800040F30730090E002804DB00F1E02080F8B6
:10C99000001405E000F00F0000F1E02080F8141D05
:10C9A000206840F30730002809DB00F01F02012156
:10C9B00091404009800000F1E020C0F8001170BDF6
:10C9C00010034200024600201268530713D502F0FC
:10C9D0000300012802D002280CD105E0C2F3831025
:10C9E0000B68801C184404E00223086803EB925291
:10C9F00010440860012070472DE9F0411746884631
:10CA00000646002417E000BF4FF4A07000EB840539
:10CA10004FF480307159A04059B1D6F80413014247
:10CA200007D02946304601F0F3FDD8E90021284619
:10CA30009047641CE4B2BC42E6D3BDE8F08100003C
:10CA40000121814003484068014201D00120704724
:10CA50000020704770230020014601208840FEF727
:10CA60005FB8F0B58488A518944200D82246A41A6D
:10CA7000C288D6189A4200D81346D21A4B88078823
:10CA8000BB420CD34088834209D88888A04206D391
:10CA9000A84204D8C888904201D3B04201D90020EE
:10CAA000F0BD0120F0BD01218140C80300D001206C
:10CAB00070470021425C0AB101207047491C1029CF
:10CAC000F8D300207047800701D000207047012074
:10CAD0007047172101804180002101714171704729
:10CAE0002DE9FE4F2E4F984692460D00814601D00B
:10CAF00000260DE0684600F05BFA6A4600214846D1
:10CB000002F07CFD3878009E10B99DF8090098B1BC
:10CB100052463146484604F083FA04460146002254
:10CB20004846FFF78BF80D2C37D008DCA4B3082C4F
:10CB300033D00B2C09D130E00520BDE8FE8F112C3D
:10CB40001ED0A4F54050023827D0204601F056FDF3
:10CB50000246144814494B46401AC008012101EB13
:10CB60000040124901F0AFFA5FF00305B8F1000F81
:10CB700004D0324621464846FEF7DEFE2846DCE772
:10CB80002A46F9784846FEF773FA5246B97848467D
:10CB9000FEF76EFA0025E9E7FFE72546E6E7000025
:10CBA0003C23002010310200C8300200BC290200E2
:10CBB00070B50E460C49154604460978FEF740FA52
:10CBC00000280FD0204602F0BFFC00282A4631463C
:10CBD000204603D0BDE8704002F0BCBCBDE8704008
:10CBE000FEF731BE70BD00003423002070B5094D42
:10CBF0000646A978FEF724FA0446E9783046FEF79F
:10CC00001FFA014622463046BDE870400123FFF777
:10CC100067BF00003C230020F0B585B00546002723
:10CC200014216846FCF735FCA5F57F40ADF80250AD
:10CC3000FF3825D02846FFF7D9FA040022D01B4838
:10CC40001B49401AC6080B2C22D0112C1ED0A4F56B
:10CC5000405002380ED0204601F0D0FC02460120A0
:10CC600000EB06402B46134901F02DFA21462846D9
:10CC700003F058FF10483A4681782846FEF7F8F945
:10CC800005B0F0BD0F208DF800000BE00127F1E7A3
:10CC900010208DF80000022000EB06402A460749CC
:10CCA00001F00AFA6846FEF793FEE3E7C830020097
:10CCB000C830020074210200F4220020C8210200C2
:10CCC0000A4602494978FEF7D3B90000F422002051
:10CCD0002DE9F041002786B080463E46FFF7CEFAA8
:10CCE00004461F481F49401AC508112C23D003DCF5
:10CCF000FCB10B2C06D114E0862C1ED0A4F54050BC
:10CD000002380ED0204601F079FC0246012000EBEB
:10CD10000540434614A101F0D6F92146404603F0F0
:10CD200001FF39464046FFF7CBFF06B03046BDE86D
:10CD3000F0810126F5E70127F3E714221A49684636
:10CD4000FCF78EFB0220ADF8028000EB0540424666
:10CD500016A101F0B1F96846FEF73AFEE1E70000DE
:10CD6000C8300200C83002006773636D5F6C6F6388
:10CD7000616C5F64625F63616368655F7570646165
:10CD8000746528292072657475726E656420257338
:10CD900020666F7220636F6E6E5F68616E646C6593
:10CDA0003A20256400000000941C0200466C617368
:10CDB000682066756C6C2E20436F756C64206E6FF6
:10CDC000742073746F7265206461746120666F7281
:10CDD00020636F6E6E5F68616E646C653A202564D7
:10CDE00000000000704700002DE9FF4100262448A4
:10CDF00000F01AFA2248001F074600F015FA214CED
:10CE00002149A06800900D6800E00098694628401C
:10CE100004EB80000C30FFF7D5FD0028F5D101AA06
:10CE2000009901EA050304EB8303491CDB6842F81F
:10CE30002030401C00910228F2D3019800F003003A
:10CE400001280BD0022810D10198032101EB90504A
:10CE50000099BDF80A6001EB900005E00198BDF86B
:10CE60000A60C0F3831008440090384600F0D9F9F6
:10CE700008B10098A06004B03046BDE8F081000021
:10CE8000D0310020B82D00201424002008B5002047
:10CE90000090FCF7F7FE5020FCF7A8FF5020FCF7AD
:10CEA0007DFF03F05BFC104D104C114F4FF06636C8
:10CEB0006846FDF70DFA2946A068FCF761FBFCF710
:10CEC000B9FD32463B46FCF7E4FCFCF79AFDC0B2E4
:10CED0006071C0F1640082B200210648FDF744FB96
:10CEE000FEF756FEE4E700000000C842C82200201A
:10CEF00066660A40201C02002DE9F047C5881E1D09
:10CF0000B6FBF5F78946B6FBF5F1044605FB176C51
:10CF1000407916686843DDF820A0F718001F8742A3
:10CF200000D9C61A166001E02468491E0029FBD109
:10CF3000A5EB0C078846B74216D818E004EB0C00A6
:10CF4000001D09EB0803BAF1000F3A4602D0014672
:10CF5000184600E01946FCF783FA2468F61B4FF0E8
:10CF6000000CB844B54201D9374600E02F46002EE8
:10CF7000E4D1BDE8F087000030B5024651B101F0C0
:10CF80000BF90021074C08E034F821301568AB425A
:10CF900002D11160002030BD491C8142F4D305202C
:10CFA00030BD000000000000BFF35F8F00F024B927
:10CFB000034A00219268C0E90021816070470000A7
:10CFC0003C23002070B586B00D4606461446142159
:10CFD0006846FCF75EFA8DF80050ADF80240204636
:10CFE000FFF7BCFBADF80400142269463046FCF79D
:10CFF00037FA06B070BD70B54FF6FF750E46A84201
:10D0000001D1002000E0401C84B208E021463046F7
:10D0100000F0F2F808B1204670BD641CA4B2FF2CE9
:10D02000F4D9284670BD00004FF08050D0F8301180
:10D030004A1C07D0D0F8340106290ED00A2909D09D
:10D040000020704706480178054808300078C0F392
:10D050000310F1E708B10128F3D001207047000068
:10D06000E00F00F04FF08050D0F830114A1C07D08C
:10D07000D0F8340106290ED00A2909D000207047C3
:10D0800006480178054808300078C0F30310F1E73E
:10D0900008B10128F3D0012070470000E00F00F034
:10D0A0004FF08050D0F830114A1C07D0D0F834012E
:10D0B00006290ED00A2909D00020704706480178B9
:10D0C000054808300078C0F30310F1E708B10128E3
:10D0D000F3D0012070470000E00F00F04FF08050C7
:10D0E000D0F830114A1C06D0D0F8340106290AD0F5
:10D0F0000A290CD010E00948017808480830007867
:10D10000C0F30310F2E7C01E012803D804E008B101
:10D11000012800D00120704700207047E00F00F088
:10D1200070B50C460546FCF777F8002802D0218838
:10D130002868084470BD10B50A8849888A4203D11E
:10D14000FCF7ACF8012010BD002010BD70B50C46F6
:10D150000546FCF786F8002802D061882868084454
:10D1600070BD10B50A8849888A4203D1FCF770F86F
:10D17000012010BD002010BD01F01F0301229A40C4
:10D18000D243490900EB8100114600F056B80A4627
:10D1900001F01F030121994010B552090C4600EB24
:10D1A000820000F05AF8204000D0012010BD2DE987
:10D1B000F04180460D460024481E012101EB501726
:10D1C00016E058F82400C04390FAA0F0B0FA80F0BE
:10D1D00020280CD200EB4416AE4208D2314640461D
:10D1E000FFF7D5FF0028ECD13046BDE8F081641C84
:10D1F000A742E6D82846F8E74A0950F8220001F08D
:10D200001F0201219140084000D00120704701F029
:10D210001F0301229A40490900EB8100114600F0EA
:10D2200026B8002100F014B8012100F020B808B59C
:10D230006A46FCF788F8009808BD08B56A46FCF70E
:10D2400068F8009808BD08B56A46FCF77CF808BD88
:10D2500008B56A46FCF75DF808BD08B56A46FCF7F4
:10D260004BF808BD08B56A46FCF73AF808BD08B5A2
:10D270006A46FCF741F8009808BD08B56A46FCF715
:10D280006FF8009808BD38B5044600258DF80050A9
:10D290006846FDF77DFB21686268086890420ED9F8
:10D2A000401E08600178238AE26801FB0325227A88
:10D2B0002168101AC0B20A79824200D208719DF822
:10D2C0000000FDF789FB284638BD38B5054600202B
:10D2D0008DF800000C466846FDF75AFBE868298A7D
:10D2E000201AB0FBF1F12A681068431C136001702A
:10D2F0009DF80000FDF770FB38BDC20800F0070381
:10D300000120895C98400840704700007CB50C46BD
:10D310008188002933D102880025102A06D0112ADD
:10D3200009D03A2A0BD0552A2ED129E001462046B1
:10D3300002F03EF828E0A01DFFF7CBFB24E02246D8
:10D34000408934F8063F834200D818466080172889
:10D3500000D217206080D06878B1607968B1184B2E
:10D36000D3E90003CDE90003ADF802106088ADF801
:10D370000400D368694610469847657125717CBDE5
:10D380000146204602F05AF8A07A0028F7D0284635
:10D39000E188A5DF012680B11128F0D001F02EF937
:10D3A00002460848084902B0401AC00806EB00408F
:10D3B000BDE8704005A100F07FBEA572E6727CBD9D
:10D3C000F01C0200E0300200C830020073645F62AB
:10D3D0006C655F67617474635F65786368616E67CD
:10D3E000655F6D74755F726571756573742829204A
:10D3F00072657475726E65642025732E00000000DE
:10D400007FB5054600294DD0002D4BD008780C463D
:10D41000DE2847D1A8886188884202D1204604F0DE
:10D42000ABF92888012825D002283BD011283AD012
:10D43000512837D135F8040F6188884232D1A97854
:10D44000A81C02292ED1017A042903D0062901D073
:10D45000052927D10021009102228DF80020019199
:10D460004FF4C07202910391ADF80420007A0528B0
:10D470000FD010E0297A2046012913D1A9884288CB
:10D4800091420FD10121017204B0BDE8704004F057
:10D4900073B9ADF8041028886946B0DF002801D0C0
:10D4A000616888477FBDA88861888842FAD14FF6B5
:10D4B000FF7060807FBD00F180400068002800D0D0
:10D4C0000120704708B500F180400021016000682C
:10D4D000009008BD70B50D4C0125207808B1852657
:10D4E0000EE00020A06060602061E060084801F06C
:10D4F000CFF8064601F00CF808B901F0B3F8257032
:10D5000001F0A8F800B1A570304670BDD029002008
:10D5100051B6010038B500258DF800506846FDF77A
:10D5200037FA084CE068401EE060E06828B901F076
:10D5300091F810B901F0BCF8A5709DF80000FDF756
:10D540004BFA38BDD02900200448017809B1852064
:10D5500070470121017000207047000078230020EF
:10D56000F0B505460478154889B0164640F82420E1
:10D57000124A0869121DA2F1080742F82400487FE8
:10D58000385520226846FBF76BFF04942878385CF6
:10D5900048B10EB10A4A00E000226946281D01F098
:10D5A000DDFD09B0F0BD0EB1064A00E0002269467B
:10D5B00005F10C0001F09CFCF3E70000582300206B
:10D5C0002D150200751302000FB408B50399002948
:10D5D00004D004AA00926A4600F00FF801B05DF88A
:10D5E00014FB10B582680446002A05D0D4E9040370
:10D5F000216898470020A06010BD2DE9FC479146A6
:10D600000C00804676D014F8011B39B125290ED0C4
:10D610004046FDF757FF20780028F4D198F80C0019
:10D62000002867D04046BDE8FC47FFF7DABF00207E
:10D63000012221782B291BD02D2902D0302908D195
:10D6400002E040F0010001E040F00200641C002A0A
:10D65000EFD100252A290ED02178A1F130020A2A23
:10D6600011D205EB850201EB4205641C303DF1E768
:10D6700040F00400EAE7D9F800100B1DC9F80030AB
:10D680000968641C0D44217800232E290BD114F85D
:10D69000011FA1F130020A2A05D203EB830201EB3C
:10D6A0004203303BF3E76C290DD068290BD0692980
:10D6B00021D00BDC252918D0582931D063290ED070
:10D6C000642915D117E014F8011FECE7702969D01F
:10D6D000732932D075291BD0782909D120E0D9F8D7
:10D6E0000000011DC9F8001001784046FDF7EAFE70
:10D6F000641C90E76CE0D9F800100A1DC9F80020FE
:10D700000968CDE900500A224046FFF7C3F8EFE769
:10D71000D9F800100A1DC9F8002009680A2206E09D
:10D72000D9F800100A1DC9F8002009681022CDE9B7
:10D730000050404603F09CFFDAE7D9F800100027BC
:10D740000A1DC9F800200E68C00705D112E0404646
:10D75000761C7F1CFDF7B6FE31780029F7D104E076
:10D76000202140466D1EFDF7ADFEBD42C0D9002D03
:10D77000F6D1BDE74EB13046FBF796FE074604E012
:10D78000202140466D1EFDF79DFEBD4206D9002DAD
:10D79000F6D103E04046761CFDF794FE317800296F
:10D7A000F8D1A5E7D9F80000011DC9F800100568F7
:10D7B00030214046FDF786FE78214046FDF782FE87
:10D7C00008200021CDE90001034610222946B0E7D8
:10D7D000BDE8FC872DE9F843884605002C482D4913
:10D7E0009946A0EB01004FEAD0004FF00101164628
:10D7F00001EB004424D0286800282CD0002E34D01F
:10D80000696840464FF010070A68511E11EA080F78
:10D8100011D1014672432846FCF7DBFD00282ED0CB
:10D8200028684B463246046901B041462846A44662
:10D83000BDE8F04360472046174B18A2009722E04E
:10D840000E2000902046144B1EA220A100F043FCA5
:10D850000E20BDE8F8830820009020460E4B26A23B
:10D860001AA100F038FC0820F3E7092000902046B8
:10D87000094B24A215A100F02EFC0920E9E7064B74
:10D88000214A2046009711A100F025FC1020E0E776
:10D8900070310200C83002004F1E020061646472E1
:10D8A0005F69735F706167655F616C69676E65640E
:10D8B00028705F66732C20706167655F61646472B5
:10D8C00029000000705F667300000000257320636C
:10D8D0006865636B206661696C656420696E2025EC
:10D8E00073282920776974682076616C756520300B
:10D8F0007825782E00000000705F66732D3E705F03
:10D90000617069006C656E00802A02000448012184
:10D910004174007A08B10020704701207047000070
:10D920008C2C0020012801D0032808D104490022B2
:10D9300001284A7400D00020087402F029BD704705
:10D940008C2C002070B50246022801D0032A45D154
:10D95000234C207A002841D0012833D0022831D12D
:10D9600020480023022A006802D0032A2AD11BE0A3
:10D97000E360017911B1012924D10DE0D0E90565F9
:10D98000711B4FF48056B14200D331462944816166
:10D990004569A9420ED015E00169491C016142693F
:10D9A00091420FD1237213E0E168491CE16008291C
:10D9B00008D9E3602372022A0AD00D21FDF792FFF5
:10D9C00002F08AFC607C28B1BDE8704000F0A6BD82
:10D9D0000021F3E7BDE8704002F0DABC70BD000042
:10D9E0008C2C0020E02300202DE9F84F90468A4639
:10D9F0003A493B4A0500A1EB02014FEAD1014FF041
:10DA00000102DDF828901E464FF00E0002EB0144A3
:10DA10001AD0B8F1000F1CD02868002822D00920A5
:10DA2000002E29D069684968B6FBF1F201FB12614A
:10DA3000002926D000902B4B20462BA235A100F0C8
:10DA40004AFB0920BDE8F88F00902046254B3CA2F8
:10DA500003E00090234B20463BA22EA100F03BFBAD
:10DA60000E20EFE70820009020461E4B38A229A187
:10DA700000F031FB0820E5E700902046194B37A263
:10DA8000DCE75046FCF79FFC102798B14046FCF7B6
:10DA90009AFCA0B1324651462846FCF79AFC98B150
:10DAA000CDF80090286833464246C468514628465F
:10DAB000A047C7E720460B4B29A2009708E0204665
:10DAC000084B2DA2009703E0064B204633A2009797
:10DAD00010A100F000FB1020B4E70000703102003C
:10DAE000C83002003C1E020021286C656E202520F3
:10DAF000705F66732D3E705F666C6173685F696E00
:10DB0000666F2D3E70726F6772616D5F756E6974BE
:10DB100029000000257320636865636B20666169D6
:10DB20006C656420696E20257328292077697468E4
:10DB30002076616C756520307825782E0000000015
:10DB4000705F667300000000705F73726300000016
:10DB5000705F66732D3E705F617069006C656E006A
:10DB6000616464725F69735F616C69676E65643379
:10DB70003228646573742900616464725F69735F3D
:10DB8000616C69676E65643332282875696E743319
:10DB9000325F7429705F737263290000616464727C
:10DBA0005F69735F77697468696E5F626F756E64D1
:10DBB0007328705F66732C20646573742C206C6509
:10DBC0006E29000070B541EA4201DDE904564FF0CC
:10DBD000A04441EA830141EA052104EB800041EAC7
:10DBE0000641C0F8001770BD70B541EA4201DDE999
:10DBF00004564FF0A04441EA830141EA052104EBB9
:10DC0000800041EA0641C0F8001770BD70B541EAD6
:10DC10004201DDE904564FF0A04441EA830141EAA4
:10DC2000052104EB800041EA0641C0F8001770BDF1
:10DC30001CB5002100910B4601220191FFF7C2FFA4
:10DC40001CBD1CB5002100910B4601220191FFF77C
:10DC5000CBFF1CBD1CB5002100910B460122019198
:10DC6000FFF7D4FF1CBD1CB500220B4600921146E5
:10DC70000192FFF7B9FF1CBD1CB500220B460092B4
:10DC800011460192FFF7C2FF1CBD1CB50021009197
:10DC90000B46012201911146FFF7A6FF1CBD1CB5E2
:10DCA000002100910B46012201911146FFF7AEFFC2
:10DCB0001CBD4FF0A04202EB8000D0F8002722F4F8
:10DCC0004032C0F80027D0F8002742EA0141C0F8EE
:10DCD0000017704738B5094B44181B6800936B4612
:10DCE00008E000BF53F82010D1F8205520C2C1F839
:10DCF0002055401C8442F5D838BD0000A81D020004
:10DD000042094FF0000100D1491E00F01F0001221E
:10DD100082400A4201D00120704700207047000075
:10DD2000034908B50844002101600068009008BD5F
:10DD30000060004002494058012800D00020704790
:10DD400000600040F0B595B01C4615460E460846EA
:10DD50001A9F00F0F1FA182109A8FBF79AFB0E9719
:10DD6000CDE909540023082203A9304600F0F7FA50
:10DD700005980690BDF81000ADF81C00BDF8120023
:10DD8000ADF81E0000208DF821000399082501F050
:10DD90000300012802D0022816D02FE0C1F3C200F0
:10DDA000C1F383178C0A8DF82000BA002B460FA907
:10DDB000304600F0D4FA09A8009006AB3A460FA905
:10DDC000204600F015FA19E0C1F3C2008C0D8DF861
:10DDD0002000082C01D2274600E008272B463A46AF
:10DDE0000FA9304600F0BBFA3D44E41B09AB06AA7C
:10DDF00039460FA800F078F9002CEAD1304600F03F
:10DE00009FFA15B0F0BD7047084810B50178084A70
:10DE1000515C19B1001D01F03BFA02E00C3001F039
:10DE200035F9BDE81040002003F0C2BAF823002005
:10DE30005423002008B5034A00924023024AFFF70A
:10DE400081FF08BD750B0200B82C00200A4A012989
:10DE500002EBC00007D0022907D0032907D004290C
:10DE600007D00020704702207047042070470079D7
:10DE70007047407970470000C83002002DE9F04F2C
:10DE80008DB0FDF737FB18B100200DB0BDE8F08F65
:10DE90007D4C4FF0000BC4F818B4BFF34F8F7B4993
:10DEA000A06802900D68D846284004EB80000BE083
:10DEB000D4F8180470B961680298814201D8A16051
:10DEC000E2E7284004EB80000C3002A9FEF77AFD5F
:10DED0000028EDD1002009AA029901EA050304EB0C
:10DEE0008303491CDB6842F82030401C0291022861
:10DEF000F2D3099800F00301022902D001294DD084
:10DF0000A8E0810D50228946B2EB905F00D85021E5
:10DF10000E4666F39F50099008315D4800F0C3F942
:10DF2000070077D000F008FA4346082209A93846CE
:10DF300000F01DFA029908F1080A2940681A8000C9
:10DF4000001D864223D9504D0C3530B1C2B204EBCE
:10DF50008101301A90460C3104E02946F2B20025C6
:10DF600090462846C6B25346384600F000FA0AEBFF
:10DF700008032DB1324629464FEA070000F0F7F9B1
:10DF8000029909F1030001EB9000029039E004EBE3
:10DF900081015346324638460C31EFE7C0F3831116
:10DFA000062900D3062161F389100990C0F383107C
:10DFB000801C8100364800F076F907004AD000F056
:10DFC000BBF94346082209A9384600F0D0F908F108
:10DFD000080800260FE00298434600EA0501401CAD
:10DFE00004EB81010290042238460C3100F0BFF9A5
:10DFF00008F10408761C0998C0F38310B042EAD8EF
:10E0000047B1D4F81054D4F8180478B1384600F069
:10E0100097F934E01EE0E8684079012804D12A68C5
:10E020002846394612689047E8680568002DF2D105
:10E03000384600F085F98DF800B06846FCF7A8FC7A
:10E04000D4F8180408B90298A0609DF80000FCF705
:10E05000C3FC14E0D4F8104405E021682046896828
:10E060008847E0680468002CF7D10A480A49401A3A
:10E07000C008022101EB004008A100F019F8FDF7EB
:10E0800039FA80F0010000E7B82D002014240020A8
:10E09000A831020088310200C83002004261636B7F
:10E0A000656E647320666C757368656400000000BB
:10E0B00000231A4603F096B808B5012300926A4679
:10E0C00003F090F808BD1CB5CDE9002302236A4691
:10E0D00003F088F81CBD3EB5069C8DE81C000323A8
:10E0E0006A4603F07FF83EBD2DE9F0470E468046B4
:10E0F0001C469246082940D894F80C9000202073C2
:10E100001946104601F0A6FF0025B54206D218F8C0
:10E1100005201BA12046FFF757FA03E01AA120466D
:10E12000FFF752FA6D1C082DEFD318A12046FFF718
:10E130004BFA0025B54212D218F805707E2F08D888
:10E14000FBF78AF90068C05D10F03E0F01D03A4637
:10E1500000E02E220EA12046FFF736FA03E00DA1C3
:10E160002046FFF731FA6D1C082DE3D3012221462A
:10E17000504601F051FF84F80C90BDE8F087000094
:10E180002025303278000000202020007C00000094
:10E19000256300002000000002480349401AC0081F
:10E1A00070470000A8310200C830020013B568466D
:10E1B000FEF7E2FE08B100201CBD0248009950F8AD
:10E1C00031001CBDC830020070B508480125D0F8E8
:10E1D0001044057007E0E0684571216820464968F1
:10E1E0008847E0680468002CF5D170BDB82D002088
:10E1F0002DE9FF4781460C9D00200C462F7B28739C
:10E20000984616462946184601F024FF072E42D2AA
:10E21000DFE806F004090F161F2A36004946284693
:10E22000FFF7D2F937E0494628462268FFF7CCF9D4
:10E2300031E0D4E9002349462846FFF7C5F92AE032
:10E24000A0680090D4E9002349462846FFF7BCF9AE
:10E2500021E0D4E90201CDE90001D4E900234946D7
:10E260002846FFF7B1F916E004F1080007C88DE869
:10E270000700D4E9002349462846FFF7A5F90AE03C
:10E2800004F108000FC88DE80F00D4E900234946C7
:10E290002846FFF799F900222946404601F0BCFEC6
:10E2A0002F73BDE8FF872DE9F041058A80462D1FB9
:10E2B0004819C01CB0FBF5F0C6B24046FEF7E3FFBC
:10E2C000041E19D00020207101206071E580002714
:10E2D0002546761EC4F800800BE04046FEF7D3FFCB
:10E2E00060B16179491C6171286005467F1CC0F8E6
:10E2F0000080B742F1D32046BDE8F081204600F00F
:10E3000002F80020F8E72DE9F041457901466B1E3F
:10E31000002201E00968521C9A42FBD30F680146B3
:10E32000002605E038460C68FEF7CFFF2146761C34
:10E33000AE42F7D3BDE8F0810121001DFEF777BFA3
:10E3400010B504460121001DFEF797FF10F0FF0FE6
:10E3500004D12046BDE81040FFF7D5BF10BD1CB565
:10E3600001920122009201AAFEF7C6FD1CBD1CB558
:10E3700001920022009201AAFEF7BEFD1CBD000022
:10E38000024A1060101D0160704700002C760040AA
:10E39000030103481844C0F81425C0F8101570474D
:10E3A0000070004002494058002800D0012070470A
:10E3B00000700040034908B508440022026000686C
:10E3C000009008BD0070004030B5144891B000784E
:10E3D000002820D05FF03405ADF8405010A903A804
:10E3E00061DF30B1052816D011B0BDE83040FCF730
:10E3F00091B803AC0A49684600F0BCF807E000BFDA
:10E40000D0E9002120469047684600F0CAF80298FB
:10E410000028E1D0F4E711B030BD00006B240020EB
:10E4200064200200F8B5134C2078C0B10120A07020
:10E4300002F0ECF9112814D0022002F0FFF90025B7
:10E440008DF800506846FCF7A3FA11DF06462570E8
:10E450009DF80000FCF7C0FA2EB13046F8BD082048
:10E46000F8BD0020F8BDA57002F070FE032002F098
:10E47000E5F9F6E7682400207CB5194C207808B14E
:10E4800008207CBD0120A070002002F0BFF91128F7
:10E4900019D0002002F0D2F912480026006801903D
:10E4A0008DF800606846FCF773FA0F4901A810DF89
:10E4B00005000AD0002020709DF80000FCF78CFABF
:10E4C0002DB128467CBD00207CBD0120F3E7A6705D
:10E4D000667002F05BFE012002F0B0F9F3E7000085
:10E4E00068240020F81F020091A401000EB507491E
:10E4F000684600F03FF805E0D0E90010884768461C
:10E5000000F04FF802980028F6D10EBD142002004A
:10E510000148007870470000682400200548817891
:10E5200019B1007818B1FFF77DBF08207047FFF7D9
:10E53000A3BF0000682400201FB568464BDF30B140
:10E54000052814D004B0BDE81040FBF7E3BF08492C
:10E5500001A800F00FF806E0D0E9002100989047EC
:10E5600001A800F01EF803980028E6D0F4E71FBDCC
:10E5700080200200016009684160AFF3008010B59F
:10E58000D0E900215368994201D1002104E0D1E98A
:10E590000034A34202D01946816010BD08314160A9
:10E5A000F0E7816800290BD0026892680A44826013
:10E5B00041684B689A4203D108314160FFF7DFBFE1
:10E5C000704700000C4A10B502F594730EE0991ADA
:10E5D000C91001EBD171491002EBC1010C688442F2
:10E5E00001D90B4602E005D201F108029A42EED3AE
:10E5F000002010BD486810BD881E020000B5FFF75E
:10E60000E1FF002800D1014800BD0000741E020097
:10E6100008B5002242504058009008BD40580028DC
:10E6200000D00120704708B50022425040580090A9
:10E6300008BDD0F80403084000D0012070474058BE
:10E64000002800D00120704708B5002242504058F1
:10E65000009008BD02480068002800D001207047E3
:10E660000004014008480068012110F0010F06D1A4
:10E670004FF0E020C02280F800248430C1670349B5
:10E68000012008607047000000E100E0180500402C
:10E690000649024600200B790BB1852070470A60BD
:10E6A00001220A7100224A71704700006023002095
:10E6B000022010B54107C1F808034FF48270FEF73D
:10E6C00001FF05490120086004480168C1F30041C9
:10E6D0000029FAD110BD00000C00004018040040D1
:10E6E000002802D00149800108477047111C020030
:10E6F000002802D00149800108477047C11D02006F
:10E7000010B500F005F80149084410BD0060004054
:10E7100010B5FCF761FF602101EB8000C0B210BDB5
:10E7200070B5194D95F8580008B1082070BD002447
:10E73000661E2046FFF7E4FA10B1281980F8306011
:10E74000641CE4B2202CF4D300242046FCF712FF12
:10E75000641CE4B20C2CF8D300200D4968650B4C06
:10E76000C02081F8000401264020891FC1F8000163
:10E770004FF4BE70FFF7D4FAA004C4F8040385F880
:10E780005860002070BD0000E429002000600040B7
:10E7900006E000E0034890F85800002800D001206F
:10E7A00070470000E42900202DE9FC4104462A4876
:10E7B0000F462044002590F93010491C01D008254F
:10E7C00044E0B978002651B3012200212046FCF72D
:10E7D000DFFE411C21D0830020483A781844797824
:10E7E000D0F81035DFF878C003EA0C03C0F8103514
:10E7F000D0F810354FF4F85C0CEA042C43EA0C0313
:10E800004FF4403C0CEA02424FF4801C0CEA0151E8
:10E810000A431343C0F8103504E0042516E0FE2136
:10E8200080F830107A780120A0404FF0A041012AF2
:10E830000FD0C1F80C050122204600960023114696
:10E840000196FFF7BFF9204601F0FEF92846BDE822
:10E85000FC81C1F80805EEE7E429002000600040D3
:10E86000FFE0ECFF0649084490F9300081000548BC
:10E870000844D0F8101541F00301C0F81015704796
:10E88000E42900200060004001B10121064A104443
:10E8900090F93000820005481044D0F8102561F34B
:10E8A0001452C0F810257047E42900200060004091
:10E8B00010B5044601F0D6F970B12046FCF78CFE85
:10E8C000C0B2FCF757FE2046FCF786FE0C4A00213A
:10E8D00002EB8000C0F810150A49FF20214481F89E
:10E8E0003000204601F098F9002807D02046FFF7B5
:10E8F0009FF92046BDE8104001F098B910BD000016
:10E9000000600040E429002010B500F005F801493E
:10E91000084410BD0060004010B5FCF75DFE3021DA
:10E9200001EB8000C0B210BD0121B1EB507F01D1DD
:10E9300001207047002070472DE9F84F0427174E3B
:10E9400000248246A1464FF0010800BF8DF80090D8
:10E950006846FCF71DF808FA04F5354203D0204656
:10E96000FEF76EF860B19DF80000FCF735F827B1AE
:10E9700004F10104AE43E4B2E8D13846BDE8F88FB3
:10E98000074908FA04F000274A68104348608AF8EB
:10E9900000409DF80000FCF71FF8EEE7FFFF0100C4
:10E9A000702300202DE9F04114460D00074612D0D7
:10E9B0008CB10026FEF777F878B13846FEF740F8BC
:10E9C00068B1084800EBC700C0F81055C0F81445FE
:10E9D0003046BDE8F0810E20FBE70726F8E7082661
:10E9E000F6E7000000F0014070B505460024FEF790
:10E9F00033F868B12846FEF756F818B12846FEF7F6
:10EA00001FF838B104490120A8400860204670BDB5
:10EA10000724FBE70824F9E708F5014070B505462F
:10EA20000024FEF719F868B12846FEF73CF818B143
:10EA30002846FEF705F838B104490120A8400860CF
:10EA4000204670BD0724FBE70824F9E704F50140E0
:10EA5000F8B504460026FEF726F898B10A480125C5
:10EA6000A540056000208DF800006846FBF790FF88
:10EA700006484168A94341609DF80000FBF7ACFFE0
:10EA80003046F8BD0726FBE708F50140702300205B
:10EA900038B50D4601F02AFB040014D000208DF893
:10EAA00000006846FBF774FF207928B19DF800004C
:10EAB000FBF792FF112038BD0120256020719DF8E1
:10EAC0000000FBF789FF002038BD10B501F00EFBF8
:10EAD000002802D000210160017110BD70B50C4604
